:10000000000004201505000085050000870500009C
:10001000890500008B0500008D0500008F0500009C
:10002000000000000000000000000000910500003A
:1000300093050000000000009505000097050000F2
:1000400099050000990500000000000099050000D6
:100050000000000099050000000000000000000002
:1000600005110000990500009905000099050000A0
:100070009905000099050000990500009905000008
:100080009905000099050000000000000000000034
:100090001914000099050000000000000000000095
:1000A00099050000990500009905000099050000D8
:1000B00099050000990500009905000099050000C8
:1000C00099050000990500009905000099050000B8
:1000D00099050000000000009905000000000000E4
:1000E0009905000000000000990500009905000036
:1000F00000000000990500000000000099050000C4
:100100000000000000000000000000009905000051
:100110009905000000000000990500009905000005
:100120000000000099050000000000000000000031
:1001300000000000000000000000000000000000BF
:1001400000000000000000000000000000000000AF
:100150009905000000000000000000000000000001
:10016000000000000000000000000000000000008F
:10017000000000000000000000000000000000007F
:10018000000000000000000000000000000000006F
:10019000000000000000000000000000000000005F
:0804000098000000010000005B
:100408000348044B834202D0034B03B1184770479B
:100418000C0000200C00002000000000064B0749DB
:10042800C91A891048BF0131491003D0044B0BB1D8
:1004380001481847704700BF0C0000200C0000203E
:100448000000000010B5064C237843B9FFF7D8FF29
:10045800044B13B10448AFF300800123237010BD8F
:100468000C000020000000003815000008B5054BFE
:100478001BB105490548AFF30080BDE80840FFF708
:10048800CDBF00BF0000000010000020381500009C
:10049800A3F5803A704700BF174B002B08BF134BDA
:1004A8009D46FFF7F5FF00218B460F461348144A77
:1004B800121A00F0FFFF0E4B002B00D098470D4B8F
:1004C800002B00D098470020002104000D000D48A3
:1004D800002802D00C48AFF3008000F0F3FF2000A2
:1004E800290000F0A1FF00F0D3FF00BF00000800C2
:1004F8000000000000000000000004200C000020A4
:100508005800002000000000000000000F49104AB9
:10051800104B00F010F81049104A114B00F00BF87E
:100528001049114A114B00F006F81149114A124BB3
:1005380000F001F806E0521A03DD043A9858885092
:10054800FBDC704700F0FEF9FFF7A6FF0000002073
:100558000C000020841500000C0000200C00002076
:10056800901500000C0000200C00002090150000E1
:100578000C0000200C00002090150000FEE7FEE7AC
:10058800FEE7FEE7FEE7FEE7FEE7FEE7FEE7FEE73B
:10059800FEE700BF80B483B000AF154B1B687B60DB
:1005A800144B1B683B607B68072B19D13B68023BE7
:1005B800032B13D801A252F823F000BFD505000081
:1005C800D9050000DD050000E1050000012308E071
:1005D800002306E0002304E0002302E0002300E0FB
:1005E800002318460C37BD465DF8047B704700BFF2
:1005F8003001FF003401FF0080B483B000AF154B19
:100608001B687B60144B1B683B607B68072B19D108
:100618003B68023B032B13D801A252F823F000BF1A
:10062800390600003D0600004106000045060000AE
:10063800012308E0012306E0002304E0002302E090
:10064800002300E0002318460C37BD465DF8047B04
:10065800704700BF3001FF003401FF0080B483B051
:1006680000AF154B1B687B60144B1B683B607B68B5
:10067800072B19D13B68023B032B13D801A252F870
:1006880023F000BF9D060000A1060000A50600009B
:10069800A9060000012308E0002306E0002304E087
:1006A800002302E0002300E0002318460C37BD4673
:1006B8005DF8047B704700BF3001FF003401FF0084
:1006C80080B483B000AF154B1B687B60144B1B686C
:1006D8003B607B68072B19D13B68023B032B13D87F
:1006E80001A252F823F000BF01070000050700002F
:1006F800090700000D070000012308E0012306E0B8
:10070800012304E0012302E0012300E0002318464E
:100718000C37BD465DF8047B704700BF3001FF0011
:100728003401FF0080B483B000AF154B1B687B60B9
:10073800144B1B683B607B68072B19D13B68023B55
:10074800032B13D801A252F823F000BF650700005D
:10075800690700006D07000071070000012308E029
:10076800002306E0002304E0002302E0002300E069
:10077800002318460C37BD465DF8047B704700BF60
:100788003001FF003401FF0080B483B000AF154B87
:100798001B687B60144B1B683B607B68072B19D177
:1007A8003B68023B032B13D801A252F823F000BF89
:1007B800C9070000CD070000D1070000D5070000D9
:1007C800012308E0002306E0002304E0002302E000
:1007D800002300E0002318460C37BD465DF8047B73
:1007E800704700BF3001FF003401FF0080B483B0C0
:1007F80000AF154B1B687B60144B1B683B607B6824
:10080800072B19D13B68023B032B13D801A252F8DE
:1008180023F000BF2D080000310800003508000053
:1008280039080000012308E0002306E0002304E063
:10083800002302E0002300E0002318460C37BD46E1
:100848005DF8047B704700BF3001FF003401FF00F2
:1008580080B483B000AF154B1B687B60144B1B68DA
:100868003B607B68072B19D13B68023B032B13D8ED
:1008780001A252F823F000BF91080000950800007B
:10088800990800009D080000012308E0012306E004
:10089800012304E0012302E0012300E000231846BD
:1008A8000C37BD465DF8047B704700BF3001FF0080
:1008B8003401FF0080B483B000AF154B1B687B6028
:1008C800144B1B683B607B68072B19D13B68023BC4
:1008D800032B13D801A252F823F000BFF50800003B
:1008E800F9080000FD08000001090000002308E0E5
:1008F800002306E0002304E0012302E0012300E0D6
:10090800002318460C37BD465DF8047B704700BFCE
:100918003001FF003401FF0080B400AF074B084AE4
:100928001B68C2F84435054B054ADB69C2F84C35EB
:1009380000BFBD465DF8047B704700BF0080FF0024
:100948000060005080B582B000AFFFF74FFF03464C
:10095800002B0CD0734B1B68002B08D1714B0D2258
:100968001A60714B01221A606F4B00221A60002333
:100978007B6000237B6011E04FF47F024FF47F011E
:100988007B68603351F8333019467B686033DB008D
:1009980013445B680B607B6801337B607B681F2BAB
:1009A80008D84FF47F027B68603352F83330B3F1D4
:1009B800FF3FE1D1FFF7B6FE0346002B05D05B4BA6
:1009C80029221A605A4B03221A60FFF7E3FD0346F7
:1009D800002B07D0574B584A1A604FF0502301227A
:1009E800C3F85825FFF708FE0346002B02D0534BE7
:1009F80000221A60FFF732FE0346002B11D04FF099
:100A08005023D3F8003403F00103002B09D04FF032
:100A180050230022C3F814214FF050230022C3F8BA
:100A28001821FFF74DFE0346002B0DD04FF0502341
:100A3800D3F8003403F00103002B05D04FF0502306
:100A48006FF00102C3F80024FFF79EFE0346002B57
:100A580002D0364B65221A60FFF7FAFE0346002BD8
:100A680021D0374B1B68002B1DDA4FF0502303228F
:100A7800C3F818254FF0502301229A6000BF4FF0A9
:100A88005023D3F80431002BF9D04FF05023002223
:100A9800C3F804214FF050230122DA604FF05023AD
:100AA8000122C3F81825FFF705FF0346002B1AD0CB
:100AB8001E4B7E221A60234B7E221A60224B7F2215
:100AC8001A60224B00221A60214B00221A60214B27
:100AD80000221A60204B00221A60204B00221A6064
:100AE8001F4B00221A6000F03FF81E4BD3F88C30E1
:100AF8001C4A43F44063C2F88C30FFF70DFF194BD2
:100B0800D3F88830174A43F47003C2F88830BFF32B
:100B18004F8F00BFBFF36F8F00BF00BF0837BD46C0
:100B280080BD00BF204A00501C4900500C470050AF
:100B38003C470050309503504400EFBE4C2503500D
:100B4800202403503C49005018210050049E0350B3
:100B5800089E035010111050242100502C210050E1
:100B6800A012205000ED00E080B485B000AF144B17
:100B7800FB60144BBB604FF47F037B6007E0FA68AF
:100B8800131FFB60BB68191FB96012681A60FA6806
:100B98007B689A42F3D23F233B600B4A3B6803F5DC
:100BA800E07352F82330084923F010023B6803F53C
:100BB800E07341F823201437BD465DF8047B704785
:100BC800FC0FFF00FCFF07200030005080B483B00A
:100BD80000AF78607B681B6800BF0C37BD465DF8C6
:100BE800047B704780B400AF00BFBD465DF8047B4E
:100BF800704780B400AF00BFBD465DF8047B704706
:100C080080B400AF00BFBD465DF8047B704780B577
:100C180082B000AF78600B467B807B887A6813448B
:100C280000221A607B887A6813441846FFF7CEFFC3
:100C380000BF0837BD4680BD80B483B000AF786080
:100C48000B467B807B887A6813441B68002B14BF93
:100C580001230023DBB218460C37BD465DF8047B40
:100C6800704780B483B000AF786039607B68D3F890
:100C780000223B68DB431A407B68C3F8002200BFB0
:100C88000C37BD465DF8047B704780B485B000AF73
:100C980078607B68D3F88034FB607B68FA68C3F8B7
:100CA8008024FB6818461437BD465DF8047B7047FE
:100CB80080B483B000AF78600B46FB70FB787A682D
:100CC800134401221A6000BF0C37BD465DF8047B4F
:100CD800704780B483B000AF78607B68D3F84C3538
:100CE80018460C37BD465DF8047B704780B483B066
:100CF80000AF78607B68D3F83C3518460C37BD46A2
:100D08005DF8047B704780B586B000AFF860B960C5
:100D18007A607A68B968F86800F092F87861FFF745
:100D280061FF7B6918461837BD4680BD80B582B023
:100D380000AF7860396039687868FFF792FFFFF78D
:100D480051FF00BF0837BD4680BD80B584B000AFF5
:100D58007860FFF755FF7868FFF797FFF860FFF7AF
:100D68004FFFFB6818461037BD4680BD80B582B07E
:100D780000AF78600B46FB70FB7819467868FFF780
:100D880097FFFFF72FFF00BF0837BD4680BD80B52E
:100D980084B000AF7860FFF72CFF7868FFF799FF01
:100DA800F860FFF726FFFB6818461037BD4680BD80
:100DB80080B584B000AF7860FFF71BFF7868FFF755
:100DC80095FFF860FFF715FFFB6818461037BD461A
:100DD80080BD80B584B000AFF860B9603B60134651
:100DE800FB80FB88A3F580739B08012202FA03F3BA
:100DF8001A46BB681340002B1DD0FB881946F868BB
:100E0800FFF71AFF0346002B15D0FB881946F86830
:100E1800FFF7FDFE3B68002B0BD03B681B68FA8888
:100E2800A2F580729208012101FA02F21A433B6886
:100E38001A60012300E0002318461037BD4680BD24
:100E480080B586B000AFF860B9607A6000233B6176
:100E5800FFF7CFFE07F110034FF48072B968F86806
:100E6800FFF7B7FF07F110034FF48272B968F8680B
:100E7800FFF7AFFF07F110034FF48472B968F86801
:100E8800FFF7A7FF07F110034FF48872B968F868F5
:100E9800FFF79FFF07F110034FF48E72B968F868E7
:100EA800FFF797FF07F110034FF49072B968F868DD
:100EB800FFF78FFF07F110034FF49272B968F868D3
:100EC800FFF787FF07F110034FF4A272B968F868BB
:100ED800FFF77FFF07F110034FF4A672B968F868AF
:100EE800FFF777FF07F110034FF4A872B968F868A5
:100EF800FFF76FFF07F110034FF4AC72B968F86899
:100F0800FFF767FFBB6803F01003002B0AD1BB682B
:100F180003F40033002B05D0F868FFF7E7FE78618B
:100F2800FFF76EFEFFF75EFE3B6918461837BD46B1
:100F380080BD80B588B000AFF860B9607A600123E1
:100F48003B74BB68BB617B687B61FB685B68FA6864
:100F5800116807F110021046984700BF2037BD46B8
:100F680080BD80B586B000AF7860396000233B72E1
:100F78003B683B617B689B68FB607B6800225A6129
:100F88007B685B687A68116807F108021046984721
:100F980000BF1837BD4680BD80B58CB000AF786003
:100FA80039603B68DB68FB613B689B693B6207F122
:100FB8001C031A4650497868FFF7A5FEF862FB6AD9
:100FC80003F40073002B1DD002233B737868FFF7EE
:100FD800BCFE0346BB617868FFF7EAFE03467B6107
:100FE8003B68DB683B613B6800229A613B680022F2
:100FF800DA613B685B683A68116807F10C021046D1
:10100800984735E0FB6A03F01003002B30D03B68AB
:1010180093F8213083F00103DBB2002B28D03B6822
:101028009B69BB623B68DB69002B17D03B68DB68B8
:101038007B6220217868FFF779FE3B68DA693B68B4
:101048009A613B681A693B68DA603B680022DA619A
:101058007A6AB96A3868FFF76CFF09E03B680022D2
:101068009A613B68DB681A46B96A3868FFF761FF1E
:10107800FB6A03F40033002B13D03B689B69002BF9
:101088000FD03B6800229A613B680022DA617868D9
:10109800FFF78EFE01463B68DB681A463868FFF7A3
:1010A80048FFFB6A03F48073002B0FD00C2178688B
:1010B800FFF75CFE3B685B69002B07D07868FFF799
:1010C80066FE034619463868FFF74BFFFB6A03F4D0
:1010D8008003002B0BD03B685B69002B07D0786836
:1010E800FFF755FE034619463868FFF73AFF00BF79
:1010F8003037BD4680BD00BF1003420080B500AF49
:1011080002490348FFF748FF80BD00BF28000020C0
:101118000080005080B483B000AF78607B681B68A3
:1011280000BF0C37BD465DF8047B704780B400AF44
:1011380000BFBD465DF8047B704780B400AF00BFB8
:10114800BD465DF8047B704780B400AF00BFBD4664
:101158005DF8047B704780B483B000AF7860396075
:101168007B68D3F804233B68134018460C37BD4608
:101178005DF8047B704780B483B000AF78600B469D
:101188007B807B887A6813441B68002B14BF01237B
:101198000023DBB218460C37BD465DF8047B704768
:1011A80080B582B000AF78600B467B807B887A6818
:1011B800134400221A607B887A6813441846FFF7A4
:1011C800A9FF00BF0837BD4680BD80B483B000AF1B
:1011D800786039607B683A68C3F8482300BF0C37E9
:1011E800BD465DF8047B704780B483B000AF03460A
:1011F800FB71FB799B0003F5A0739BB218460C3773
:10120800BD465DF8047B704780B584B000AF786058
:1012180039603968786800F061F8F860FFF786FF90
:10122800FB6818461037BD4680BD80B584B000AF56
:1012380078603960FFF788FF39687868FFF78BFFB7
:10124800F860FFF77AFFFB6818461037BD4680BD87
:1012580080B582B000AF7860396039687868FFF788
:10126800B4FFFFF763FF00BF0837BD4680BD80B5F8
:1012780084B000AFF860B9603B601346FB80FB8820
:10128800A3F580739B08012202FA03F31A46BB6890
:101298001340002B1DD0FB881946F868FFF76BFF39
:1012A8000346002B15D0FB881946F868FFF778FF2E
:1012B8003B68002B0BD03B681B68FA88A2F580724C
:1012C8009208012101FA02F21A433B681A600123CD
:1012D80000E0002318461037BD4680BD80B584B0B5
:1012E80000AF786039600023BB60FFF726FF00235A
:1012F800FB600FE0FB68DBB21846FFF775FF03469B
:101308001A4607F1080339687868FFF7B0FFFB68E9
:101318000133FB60FB68032BECD907F108034FF49A
:10132800807239687868FFF7A2FF07F108034FF465
:10133800827239687868FFF79AFFBB6818461037D9
:10134800BD4680BD80B58AB000AFF860B9607A60EC
:101358002E4B3B62396AF868FFF756FFF8614FF485
:101368007021F868FFF761FFB86100237B6232E003
:101378007B6ADBB21846FFF737FF0346FB82FB8A1E
:10138800A3F580739B08012202FA03F31A46BB698E
:101398001340002B1CD0FB8AA3F580739B08012205
:1013A80002FA03F31A46FB691340002B10D0FB8A9C
:1013B800A3F580739B08012202FA03F31946F86823
:1013C800FFF746FFBB681B687A6AD2B21046984797
:1013D8007B6A01337B627A6A7B689A42C8D3FB696D
:1013E80003F00103002B03D0BB681B680420984757
:1013F800FB6903F00203002B03D0BB681B680520C0
:10140800984700BF2837BD4680BD00BF03000F00C6
:1014180080B500AF042202490248FFF793FF80BD60
:101428004C0000200040015080B487B000AF00237A
:101438007B6101233B610223FB60134BBB60134BB1
:101448007B600BE005227B6913447B6107223B69C3
:1014580013443B610022FB681344FB600B4B1B6881
:101468007A699A4209DA094B1B683A699A4204DA9E
:10147800064B1B68FA689A42E4DB002318461C37BF
:10148800BD465DF8047B704700000020080000207E
:1014980008B5064B044613B10021AFF30080044B96
:1014A8001B6803B19847204600F030F800000000A0
:1014B8005400002002440346934200D1704703F8C9
:1014C800011BF9E770B50D4D00260D4C641BA410E7
:1014D800A64209D10B4D00260B4C00F019F8641BED
:1014E800A410A64205D170BD55F8043B01369847B3
:1014F800EEE755F8043B01369847F2E7241500005B
:10150800241500002415000028150000FEE700BF80
:10151800F8B500BFF8BC08BC9E46704775040000CB
:10152800F8B500BFF8BC08BC9E4670474D040000E3
:0415380000000000AF
:10153C00841500000000002003000000901500003E
:10154C000C00002000000000901500000C00002092
:10155C0000000000901500000C00002000000000AE
:10156C000C000020130000005800002000000000B8
:08157C005800002000000000EF
:0C158400676F6F64206A6F625F000000F8
:0400000300000515DF
:00000001FF
