:1000000000000420E1070000510800005308000030
:100010005508000057080000590800005B08000060
:100020000000000000000000000000005D0800006B
:100030005F08000000000000610800006308000085
:100040006508000065080000000000006508000069
:100050000000000065080000000000000000000033
:1000600065080000650800006508000065080000DC
:1000700065080000650800006508000065080000CC
:100080006508000065080000000000000000000096
:100090006508000065080000000000000000000086
:1000A000650800006508000065080000650800009C
:1000B000650800006508000065080000650800008C
:1000C000650800006508000065080000650800007C
:1000D0006508000000000000650800000000000046
:1000E00065080000000000006508000065080000C9
:1000F0000000000065080000000000006508000026
:100100000000000000000000000000006508000082
:100110006508000000000000650800006508000098
:100120000000000065080000000000000000000062
:1001300000000000000000000000000000000000BF
:1001400000000000000000000000000000000000AF
:100150006508000000000000000000000000000032
:10016000000000000000000000000000000000008F
:10017000000000000000000000000000000000007F
:10018000000000000000000000000000000000006F
:10019000000000000000000000000000000000005F
:1004000000400150140004001C0000001D0000000A
:100410001E0000001F00000050726F6772616D20A7
:10042000737461727465642C20706C6561736520EF
:10043000707265737320616E7920627574746F6E6B
:1004400020746F20696E697469616C697A652074C3
:1004500068652070726F6772616D2E0D0A00000072
:1004600050726F6772616D20696E697469616C6941
:100470007A656420776974682061207365656420FB
:1004800076616C75652E0D0A00000000456E74657E
:100490007220616E20616D6F756E743A20000000ED
:1004A000456E74657220612064656C61793A200044
:1004B000457865637574696E672070726F677261E5
:1004C0006D2C206974276C6C2074616B65207E0034
:1004D0006D730D0A000000000000074100000000DD
:1004E0000D0A00001B630000256400005245454EC4
:1004F00054206D616C6C6F63207375636365656414
:100500006564002F646174612F6A656E6B696E7338
:100510002F776F726B73706163652F474E552D7423
:100520006F6F6C636861696E2F61726D2D31332F4F
:100530007372632F6E65776C69622D637967776973
:100540006E2F6E65776C69622F6C6962632F7374AE
:10055000646C69622F72616E642E63002C20667574
:100560006E6374696F6E3A200061737365727469AB
:100570006F6E2022257322206661696C65643A20C3
:1005800066696C6520222573222C206C696E6520BB
:100590002564257325730A00232D302B2000686CF9
:1005A0004C00656667454647003031323334353696
:1005B00037383941424344454600303132333435CF
:1005C0003637383961626364656600002020202078
:1005D00020202020202828282828202020202020F3
:1005E00020202020202020202020202088101010D3
:1005F000101010101010101010101010040404042B
:10060000040404040404101010101010104141419F
:10061000414141010101010101010101010101010A
:10062000010101010101011010101010104242429D
:1006300042424202020202020202020202020202DA
:10064000020202020202021010101020000000003C
:10065000000000000000000000000000000000009A
:10066000000000000000000000000000000000008A
:10067000000000000000000000000000000000007A
:10068000000000000000000000000000000000006A
:10069000000000000000000000000000000000005A
:1006A000000000000000000000000000000000004A
:1006B000000000000000000000000000000000003A
:0C06C0000000000000000000000000002E
:0806CC0098000000010000008D
:1006D4000348044B834202D0034B03B118477047CD
:1006E400600000206000002000000000064B074965
:1006F400C91A891048BF0131491003D0044B0BB10A
:1007040001481847704700BF6000002060000020C7
:100714000000000010B5064C237843B9FFF7D8FF5A
:10072400044B13B10448AFF300800123237010BDC0
:100734006000002000000000A03D000008B5054B4B
:100744001BB105490548AFF30080BDE80840FFF739
:10075400CDBF00BF0000000064000020A03D0000E9
:10076400A3F5803A704700BF174B002B08BF134B0B
:100774009D46FFF7F5FF00218B460F461348144AA8
:10078400121A02F03AFA0E4B002B00D098470D4B88
:10079400002B00D098470020002104000D000D48D4
:1007A400002802D00C48AFF3008002F089FA200040
:1007B400290000F0B9FC01F0F9FF00BF00000800B7
:1007C4000000000000000000000004206000002081
:1007D4000002002000000000000000000F49104A41
:1007E400104B00F010F81049104A114B00F00BF8B0
:1007F4001049114A114B00F006F81149114A124BE5
:1008040000F001F806E0521A03DD043A98588850C3
:10081400FBDC704700F0FEF9FFF7A6FF00000020A4
:1008240060000020EC3D000060000020600000201B
:100834004C3E000060000020600000204C3E0000A0
:1008440060000020600000204C3E0000FEE7FEE750
:10085400FEE7FEE7FEE7FEE7FEE7FEE7FEE7FEE76C
:10086400FEE700BF80B483B000AF154B1B687B600C
:10087400144B1B683B607B68072B19D13B68023B18
:10088400032B13D801A252F823F000BFA1080000E3
:10089400A5080000A9080000AD080000012308E035
:1008A400002306E0002304E0002302E0002300E02C
:1008B400002318460C37BD465DF8047B704700BF23
:1008C4003001FF003401FF0080B483B000AF154B4A
:1008D4001B687B60144B1B683B607B68072B19D13A
:1008E4003B68023B032B13D801A252F823F000BF4C
:1008F40005090000090900000D09000011090000A4
:10090400012308E0012306E0002304E0002302E0C1
:10091400002300E0002318460C37BD465DF8047B35
:10092400704700BF3001FF003401FF0080B483B082
:1009340000AF154B1B687B60144B1B683B607B68E6
:10094400072B19D13B68023B032B13D801A252F8A1
:1009540023F000BF690900006D090000710900005F
:1009640075090000012308E0002306E0002304E0E9
:10097400002302E0002300E0002318460C37BD46A4
:100984005DF8047B704700BF3001FF003401FF00B5
:1009940080B483B000AF154B1B687B60144B1B689D
:1009A4003B607B68072B19D13B68023B032B13D8B0
:1009B40001A252F823F000BFCD090000D1090000C4
:1009C400D5090000D9090000012308E0012306E04D
:1009D400012304E0012302E0012300E00023184680
:1009E4000C37BD465DF8047B704700BF3001FF0043
:1009F4003401FF0080B483B000AF154B1B687B60EB
:100A0400144B1B683B607B68072B19D13B68023B86
:100A1400032B13D801A252F823F000BF310A0000BF
:100A2400350A0000390A00003D0A0000012308E0ED
:100A3400002306E0002304E0002302E0002300E09A
:100A4400002318460C37BD465DF8047B704700BF91
:100A54003001FF003401FF0080B483B000AF154BB8
:100A64001B687B60144B1B683B607B68072B19D1A8
:100A74003B68023B032B13D801A252F823F000BFBA
:100A8400950A0000990A00009D0A0000A10A0000CE
:100A9400012308E0002306E0002304E0002302E031
:100AA400002300E0002318460C37BD465DF8047BA4
:100AB400704700BF3001FF003401FF0080B483B0F1
:100AC40000AF154B1B687B60144B1B683B607B6855
:100AD400072B19D13B68023B032B13D801A252F810
:100AE40023F000BFF90A0000FD0A0000010B00001A
:100AF400050B0000012308E0002306E0002304E0C6
:100B0400002302E0002300E0002318460C37BD4612
:100B14005DF8047B704700BF3001FF003401FF0023
:100B240080B483B000AF154B1B687B60144B1B680B
:100B34003B607B68072B19D13B68023B032B13D81E
:100B440001A252F823F000BF5D0B0000610B00000E
:100B5400650B0000690B0000012308E0012306E097
:100B6400012304E0012302E0012300E000231846EE
:100B74000C37BD465DF8047B704700BF3001FF00B1
:100B84003401FF0080B483B000AF154B1B687B6059
:100B9400144B1B683B607B68072B19D13B68023BF5
:100BA400032B13D801A252F823F000BFC10B00009D
:100BB400C50B0000C90B0000CD0B0000002308E0AA
:100BC400002306E0002304E0012302E0012300E007
:100BD400002318460C37BD465DF8047B704700BF00
:100BE4003001FF003401FF0080B400AF074B084A16
:100BF4001B68C2F84435054B054ADB69C2F84C351D
:100C040000BFBD465DF8047B704700BF0080FF0055
:100C14000060005080B582B000AFFFF74FFF03467D
:100C2400002B0CD0734B1B68002B08D1714B0D2289
:100C34001A60714B01221A606F4B00221A60002364
:100C44007B6000237B6011E04FF47F024FF47F014F
:100C54007B68603351F8333019467B686033DB00BE
:100C640013445B680B607B6801337B607B681F2BDC
:100C740008D84FF47F027B68603352F83330B3F105
:100C8400FF3FE1D1FFF7B6FE0346002B05D05B4BD7
:100C940029221A605A4B03221A60FFF7E3FD034628
:100CA400002B07D0574B584A1A604FF050230122AB
:100CB400C3F85825FFF708FE0346002B02D0534B18
:100CC40000221A60FFF732FE0346002B11D04FF0CA
:100CD4005023D3F8003403F00103002B09D04FF064
:100CE40050230022C3F814214FF050230022C3F8EC
:100CF4001821FFF74DFE0346002B0DD04FF0502373
:100D0400D3F8003403F00103002B05D04FF0502337
:100D14006FF00102C3F80024FFF79EFE0346002B88
:100D240002D0364B65221A60FFF7FAFE0346002B09
:100D340021D0374B1B68002B1DDA4FF050230322C0
:100D4400C3F818254FF0502301229A6000BF4FF0DA
:100D54005023D3F80431002BF9D04FF05023002254
:100D6400C3F804214FF050230122DA604FF05023DE
:100D74000122C3F81825FFF705FF0346002B1AD0FC
:100D84001E4B7E221A60234B7E221A60224B7F2246
:100D94001A60224B00221A60214B00221A60214B58
:100DA40000221A60204B00221A60204B00221A6095
:100DB4001F4B00221A6000F03FF81E4BD3F88C3012
:100DC4001C4A43F44063C2F88C30FFF70DFF194B03
:100DD400D3F88830174A43F47003C2F88830BFF35D
:100DE4004F8F00BFBFF36F8F00BF00BF0837BD46F2
:100DF40080BD00BF204A00501C4900500C470050E1
:100E04003C470050309503504400EFBE4C2503503E
:100E1400202403503C49005018210050049E0350E4
:100E2400089E035010111050242100502C21005012
:100E3400A012205000ED00E080B485B000AF144B48
:100E4400FB60144BBB604FF47F037B6007E0FA68E0
:100E5400131FFB60BB68191FB96012681A60FA6837
:100E64007B689A42F3D23F233B600B4A3B6803F50D
:100E7400E07352F82330084923F010023B6803F56D
:100E8400E07341F823201437BD465DF8047B7047B6
:100E9400FC0FFF00FCFF07200030005080B400AFBF
:100EA40000BFBD465DF8047B7047000080B584B088
:100EB40000AF78600023FB60786800F0F4F8034624
:100EC400002B02D0012B03D004E0054BFB6001E0B2
:100ED400044BFB60FB6818461037BD4680BD00BF5D
:100EE400002584500028845080B586B000AF786017
:100EF400084611461A460346FB700B46BB70134660
:100F04007B703B1D1846FFF7D1FF78617A687B69D7
:100F1400803253F822303B61114BFB60FB68DB43AA
:100F24003A6913403B61FA78BB785B001A437B78DB
:100F34009B001A4397F820301B021A4397F8243079
:100F44001B0413433A6913433B617A687B6980321B
:100F5400396943F8221000BF1837BD4680BD00BF71
:100F64000F0F030080B584B002AF786000230193B3
:100F7400002300930023012201217868FFF7B4FFC6
:100F840000BF0837BD4680BD80B584B002AF78602D
:100F94000B46FB70FB780022019200220092002293
:100FA40000217868FFF7A0FF00BF0837BD4680BD69
:100FB40080B584B000AF78603B1D1846FFF776FF1C
:100FC400F8607B68012202FA03F31946F86800F01E
:100FD4004EF800BF1037BD4680BD80B584B000AF69
:100FE40078603B1D1846FFF761FFF8607B680122BB
:100FF40002FA03F31946F86800F047F800BF103707
:10100400BD4680BD80B582B000AF786039603B6872
:10101400002B03D17868FFF7E0FF02E07868FFF760
:10102400C7FF00BF0837BD4680BD80B584B000AFA0
:1010340078603B1D1846FFF739FFF860F86800F048
:101044000AF802467B6822FA03F303F00103184608
:101054001037BD4680BD80B483B000AF78607B6834
:101064001B6918460C37BD465DF8047B704780B495
:1010740083B000AF786039607B683A689A6000BFDB
:101084000C37BD465DF8047B704780B483B000AF75
:10109400786039607B683A68DA6000BF0C37BD4617
:1010A4005DF8047B704780B485B000AF78607B68DE
:1010B4001B68FB60FB6803F01F027B681A60FB6817
:1010C4005B0918461437BD465DF8047B704780B44D
:1010D40083B000AF78607B68D3F8043518460C37CA
:1010E400BD465DF8047B704780B584B000AF78607E
:1010F400FFF7D4FE7868FFF7EAFFF860FFF7CEFE4B
:10110400FB6818461037BD4680BD80B582B000AF7D
:1011140078607B681B681846FFF7E6FF03461846AD
:101124000837BD4680BD000080B58AB000AF0023FB
:10113400FB613B46184600F0CFF85E4A07F1100306
:1011440092E8030018600433198007F110030022A9
:101154001946594801F0BAFA574801F00BFB01F05F
:101164006BF91C20FFF7FEFE1D20FFF7FBFE1E207F
:10117400FFF7F8FE1F20FFF7F5FE03211720FFF706
:1011840003FF03211820FFF7FFFE03210820FFF7C8
:10119400FBFE03210920FFF7F7FE00F029F9474879
:1011A40000F0DAF800237B620AE0454A7B6A52F8D1
:1011B400233001211846FFF725FF7B6A01337B6248
:1011C4007B6A032BF1DD1720FFF72FFF0346002B6B
:1011D40011D01820FFF729FF0346002B0BD008205D
:1011E400FFF723FF0346002B05D00920FFF71DFF5F
:1011F4000346002BE7D1FB69002BE4D12E48FFF70F
:1012040084FF0346184601F0E3FA0123FB6100BFA3
:101214002C4800F0A1F80023FB600023BB602A489F
:1012240000F09AF807F10C03184600F01DF900F0DD
:10123400D5F8264800F090F807F10803184600F0A6
:1012440013F900F0CBF8224800F086F8FB68BA687E
:1012540002FB03F3184600F0D5F81E4800F07CF8B2
:1012640000233B6221E001F0E1FA03465A4203F015
:10127400030302F0030258BF5342BB61104ABB6927
:1012840052F8233000211846FFF7BCFEBB6818460D
:1012940001F0F4F80A4ABB6952F8233001211846D8
:1012A400FFF7B0FE3B6A01333B62FB683A6A9A423D
:1012B400D9DBB0E7D80400000004000018040000E3
:1012C40008040000600400008C040000A004000076
:1012D400B0040000D004000080B58EB000AF786088
:1012E4001B4B3B63002387F8343007F10C032422A3
:1012F4000021184601F081FC1423FB6016233B6196
:101304004FF0FF337B614FF0FF33BB614FF0EB7362
:101314003B62072387F8243007F10C0107F13003FF
:101324000022184600F088FE0A4B1A4607F13003E3
:1013340093E8030082E803007B681A4607F1300350
:1013440093E8030082E8030078683837BD4680BD1F
:10135400008000507C00002080B5C4B000AF07F5C9
:101364008873A3F58673186007F58873A3F58273F1
:1013740018464FF480731A46002101F03EFC07F52D
:101384008873A3F5867307F10C021968104601F0FF
:101394003CFC0023C7F80C310EE007F10C02D7F82F
:1013A4000C31D118002301220B4800F09FFED7F81E
:1013B4000C310133C7F80C3107F58873A3F5827239
:1013C400D7F80C3113441B78002BE6D100BF00BFC3
:1013D40007F58877BD4680BD7C00002080B500AF4E
:1013E4000248FFF7B9FF00BF80BD00BFE004000062
:1013F40080B500AF0248FFF7AFFF00BF80BD00BF5C
:10140400E404000080B59CB000AF786007F10803E5
:1014140064220021184601F0F0FB07F108037A6802
:101424000F49184601F086FB0023FB660BE007F129
:101434000802FB6ED118002301220A4800F056FE70
:10144400FB6E0133FB6607F10802FB6E13441B7845
:10145400002BECD100BF00BF7037BD4680BD00BF7C
:10146400E80400007C00002080B59CB000AF7860E8
:1014740007F1080364220021184601F0BEFB002393
:10148400FB6619E007F10802FB6E134401221946BA
:10149400114800F0C3FE07F10802FB6E13441B78E9
:1014A4000D2B06D107F10802FB6E134400221A70BB
:1014B40005E0FB6E0133FB66FB6E632BE2DD07F197
:1014C4000803184601F06EF902467B681A6000BFF3
:1014D4007037BD4680BD00BF7C00002080B483B05F
:1014E40000AF78607B681B6800BF0C37BD465DF8B1
:1014F400047B704780B400AF00BFBD465DF8047B39
:10150400704780B400AF00BFBD465DF8047B7047F0
:1015140080B400AF00BFBD465DF8047B704780B463
:1015240083B000AF786039603B6803F06043B3F187
:10153400005F0CBF01230023DBB218460C37BD4605
:101544005DF8047B704780B582B000AF78600B46CD
:101554007B807B887A68134400221A607B887A68CF
:1015640013441846FFF7BAFF00BF0837BD4680BDD5
:1015740080B483B000AF78600B467B807B887A6848
:1015840013441B68002B14BF01230023DBB218464D
:101594000C37BD465DF8047B704780B483B000AF60
:1015A400786039607B68D3F800223B681A437B6813
:1015B400C3F8002200BF0C37BD465DF8047B7047BA
:1015C40080B483B000AF786039607B683A68C3F850
:1015D400042300BF0C37BD465DF8047B704780B41C
:1015E40083B000AF786039607B683A68C3F8082339
:1015F40000BF0C37BD465DF8047B704780B485B0EE
:1016040000AF78607B68D3F88034FB607B68FA684D
:10161400C3F88024FB6818461437BD465DF8047B84
:10162400704780B483B000AF78607B680822C3F849
:10163400002500BF0C37BD465DF8047B704780B4BD
:1016440083B000AF78607B680022C3F8002500BF38
:101654000C37BD465DF8047B704780B485B000AF9D
:10166400F860B9607A60FB68BA68C3F80C25FB6857
:101674007A68C3F8142500BF1437BD465DF8047BAF
:10168400704780B485B000AFF860B9607A60FB68D9
:10169400BA68C3F80825FB687A68C3F8102500BF48
:1016A4001437BD465DF8047B704780B483B000AF47
:1016B40078600B46FB70FB787A68134401221A6049
:1016C40000BF0C37BD465DF8047B704780B483B01F
:1016D40000AF786039603B685A783B689B78134365
:1016E400DBB21A463B689B8813433A6812781A4364
:1016F4007B68C3F86C2500BF0C37BD465DF8047BDE
:10170400704780B483B000AF786039607B683A6812
:10171400C3F8242500BF0C37BD465DF8047B704731
:1017240080B485B000AFF860B9607A60BA68FB68CD
:10173400C3F84425FB687A68C3F8482500BF14370A
:10174400BD465DF8047B704780B485B000AFF86097
:10175400B9607A60BA68FB68C3F83425FB687A68B4
:10176400C3F8382500BF1437BD465DF8047B7047C5
:1017740080B483B000AF78607B68D3F83C351846FA
:101784000C37BD465DF8047B704780B582B000AF6E
:10179400786039603B681B6919467868FFF7B1FFC8
:1017A4003B68143319467868FFF790FF3B689B7ECB
:1017B40083F00103DBB2002B07D03B6819683B6858
:1017C4005B681A467868FFF748FF3B681B7D012B6E
:1017D4000ED13B689B7E83F00103DBB2002B07D064
:1017E4003B6899683B68DB681A467868FFF749FFED
:1017F400FFF780FE00BF0837BD4680BD80B584B0CA
:1018040000AFF860B96011461A460B46FB711346E7
:10181400BB714FF48072B968F86800F078F94FF43E
:101824008272B968F86800F072F94FF48472B9688A
:10183400F86800F06CF94FF48872B968F86800F041
:1018440066F94FF48E72B968F86800F060F94FF4E5
:101854009072B968F86800F05AF94FF49272B96856
:10186400F86800F054F94FF4A272B968F86800F00F
:101874004EF94FF4A672B968F86800F048F94FF4CD
:10188400A872B968F86800F042F94FF4AC72B9680C
:10189400F86800F03CF9FFF72DFEBB79002B03D06C
:1018A400B968F868FFF78CFEFFF724FE00BF103715
:1018B400BD4680BD80B586B000AFF860B9607A607F
:1018C4007A68B968F86800F075F97861FFF712FE74
:1018D4007B6918461837BD4680BD80B582B000AF1D
:1018E400786039600C217868FFF7DFFEFFF702FEAD
:1018F40000BF00224FF48001786800F05BF90346D2
:10190400002BF6D03B68002B13D03B685B68002BA0
:101914000FD004217868FFF7C8FEFFF7EBFD00BF86
:101924003A684FF40031786800F044F90346002B1C
:10193400F6D000BF0837BD4680BD000080B584B036
:1019440000AF78600B46FB700023FB6008217868C9
:10195400FFF7ABFEFB78002B0CD00A4BBB60FFF704
:10196400C9FD0022B9687868FFF7A4FFF860FB6836
:10197400002BF6D0FFF7BEFDFB6818461037BD46B6
:1019840080BD00BF0001400080B584B000AF786026
:1019940039600023FB6000217868FFF786FE3B680E
:1019A400002B0CD0094BBB60FFF7A4FD3A68B96863
:1019B4007868FFF77FFFF860FB68002BF6D0FFF72D
:1019C40099FDFB6818461037BD4680BD1002020021
:1019D40080B582B000AF78600B467B807B88194667
:1019E4007868FFF7B0FDFFF785FD00BF0837BD46F7
:1019F40080BD80B582B000AF78603960396878689E
:101A0400FFF7CBFDFFF776FD00BF0837BD4680BD6D
:101A140080B582B000AF7860396039687868FFF7C4
:101A2400CFFDFFF767FD00BF0837BD4680BD80B519
:101A340082B000AF7860396039687868FFF7CFFD0D
:101A4400FFF758FD00BF0837BD4680BD80B584B0A0
:101A540000AF7860FFF75CFD7868FFF7CFFDF860B2
:101A6400FFF756FDFB6818461037BD4680BD80B5AC
:101A740082B000AF78607868FFF7D3FDFFF73AFDD6
:101A840000BF0837BD4680BD80B582B000AF786026
:101A94007868FFF7D4FDFFF72DFD00BF0837BD467A
:101AA40080BD80B582B000AF78600B46FB70FB78D8
:101AB40019467868FFF7F9FDFFF71CFD00BF0837EA
:101AC400BD4680BD80B584B000AFF860B9607A606F
:101AD400BB68002B06D07A68B968F868FFF720FE67
:101AE400FFF708FD00BF1037BD4680BD80B584B048
:101AF40000AFF860B9607A607A68B968F868FFF78F
:101B040023FEFFF7F7FC00BF1037BD4680BD80B54C
:101B140084B000AFF860B9601346FB80FB88A3F57E
:101B240080739B08012202FA03F31A46BB68134030
:101B3400002B04D0FB881946F868FFF704FD00BFAA
:101B44001037BD4680BD80B584B000AFF860B96081
:101B54003B601346FB80FB88A3F580739B0801223E
:101B640002FA03F31A46BB681340002B1DD0FB880E
:101B74001946F868FFF7FCFC0346002B15D0FB88D8
:101B84001946F868FFF7DFFC3B68002B0BD03B6875
:101B94001B68FA88A2F580729208012101FA02F208
:101BA4001A433B681A60012300E0002318461037EB
:101BB400BD4680BD80B586B000AFF860B9607A607C
:101BC40000233B61FFF79DFC07F110034FF4807283
:101BD400B968F868FFF7B7FF07F110034FF4827292
:101BE400B968F868FFF7AFFF07F110034FF4847288
:101BF400B968F868FFF7A7FF07F110034FF488727C
:101C0400B968F868FFF79FFF07F110034FF48E726D
:101C1400B968F868FFF797FF07F110034FF4907263
:101C2400B968F868FFF78FFF07F110034FF4927259
:101C3400B968F868FFF787FF07F110034FF4A27241
:101C4400B968F868FFF77FFF07F110034FF4A67235
:101C5400B968F868FFF777FF07F110034FF4A8722B
:101C6400B968F868FFF76FFF07F110034FF4AC721F
:101C7400B968F868FFF767FFBB6803F01003002B2F
:101C84000AD1BB6803F40033002B05D0F868FFF7D2
:101C94006FFD7861FFF73CFCFFF72CFC3B691846AD
:101CA4001837BD4680BD000080B584B000AF7860B1
:101CB4000023FB60786800F09CF80346002B02D0F8
:101CC400012B03D004E0054BFB6001E0044BFB60F7
:101CD400FB6818461037BD4680BD00BF0025845000
:101CE4000028845080B586B000AF7860084611465D
:101CF4001A460346FB700B46BB7013467B703B1DB4
:101D04001846FFF7D1FF78617A687B69803253F80F
:101D140022303B61114BFB60FB68DB433A691340A3
:101D24003B61FA78BB785B001A437B789B001A43CB
:101D340097F820301B021A4397F824301B041343EE
:101D44003A6913433B617A687B698032396943F8A5
:101D5400221000BF1837BD4680BD00BF0F0F03001F
:101D640080B584B002AF7860002301930023009310
:101D74000023012201217868FFF7B4FF00BF083770
:101D8400BD4680BD80B584B002AF78600B46FB7061
:101D9400FB78002201920022009200220021786840
:101DA400FFF7A0FF00BF0837BD4680BD80B584B0F3
:101DB40000AF78603B1D1846FFF776FFF8607B683C
:101DC400012202FA03F31946F86800F004F800BF90
:101DD4001037BD4680BD80B483B000AF78603960F1
:101DE4007B683A689A6000BF0C37BD465DF8047B97
:101DF400704780B485B000AF78607B681B68FB6077
:101E0400FB6803F01F027B681A60FB685B091846D5
:101E14001437BD465DF8047B704780B582B000AFCF
:101E240078607868FFF79CFFFFF764FB00BF083712
:101E3400BD4680BD80B582B000AF78600B46FB70B4
:101E4400FB7819467868FFF79DFFFFF753FB00BF47
:101E54000837BD4680BD80B582B000AF7860786831
:101E6400FFF7A4FFFFF746FB00BF0837BD4680BD60
:101E740080B58AB000AF786039603B6893F8203051
:101E840083F00103DBB2002B19D03B681B68B3F16C
:101E9400FF3F09D03B681B681846FFF7DCFF3B682F
:101EA4001B681846FFF7B9FF3B685B68B3F1FF3F57
:101EB40005D03B685B6800211846FFF7BBFF3B6811
:101EC4009B7E012B21D13B6893F8203083F00103E2
:101ED400DBB2002B19D03B68DB68B3F1FF3F05D0C0
:101EE4003B68DB6800211846FFF7A4FF3B689B684A
:101EF400B3F1FF3F09D03B689B681846FFF7ABFF7F
:101F04003B689B681846FFF788FF07F10C03002223
:101F14001A605A609A60DA601A615A619A613B6881
:101F24001B68FB603B685B683B613B689B687B614B
:101F34003B68DB68BB613B685B69FB613B6893F8AA
:101F4400213087F826303A6807F120031A321068E6
:101F5400186092889A807B681B6807F10C0211460E
:101F64001846FFF712FC786800F01EF87B681B79AE
:101F740019460B4A0B46DB000B449B001344043305
:101F84001B68002B07D07B6818683B681A7E012306
:101F94000449FFF733FC00BF2837BD4680BD00BFAE
:101FA400840000201003420080B586B000AF786042
:101FB4007B681B6803F26453FB607B681B6803F552
:101FC400AD63BB60BB681B68012B05D17B681B68D4
:101FD4000C211846FFF765FDFB681B68012B26D111
:101FE4007B681B681846FFF742FD7B681B68042169
:101FF4001846FFF756FD0023FB7549F640433B6145
:10200400FB681B68002B02D10123FB7505E03B69CB
:10201400013B3B613B69002BF2D17B681B6818468E
:10202400FFF714FD7B681B681846FFF72DFD00BF02
:102034001837BD4680BD000080B586B000AFF8609B
:10204400B9607A60FB681B791A461346DB001344B7
:102054009B00234A13447B61224B3B617B6993F8C9
:102064002030002B03D0204B3B613B6934E07B697B
:102074007A685A60BB68002B1BD0BB681A697B69FD
:102084001A60BB6893F820107A6992F8223061F3E1
:10209400000382F82230BB6893F821107A6992F821
:1020A400223061F3410382F82230B968F868FFF7FF
:1020B400DFFEFB681B681846FFF7D9FC7B6900222A
:1020C4009A617B690022DA617B6900225A617B692B
:1020D400012283F820203B6918461837BD4680BD8D
:1020E400840000200000AD0B0500AD0B80B588B066
:1020F40000AFF860B9607A603B60FB681B791A46F0
:102104001346DB0013449B00314A1344BB61314B3B
:10211400FB61FB681B68B9681846FFF700FA0346C1
:1021240083F00103DBB2002B03D02B4BFB61FB6973
:102134004AE0F86800F056F80346002B03D0274B1A
:10214400FB61FB6940E0BB697A685A61BB69BA68A4
:102154009A60FB681B684FF490711846FFF738FCCF
:10216400FB681B684FF4AC711846FFF731FCFB6841
:102174001868BB699968BB695B691A46FFF7A2FCDA
:10218400FB681A68BB695B68002B0CBF0123002342
:10219400DBB219461046FFF7D1FB7861BB695B6877
:1021A400002B10D17B6903F48003002B02D00C4B6D
:1021B400FB6105E0FB681B6800211846FFF78DFBF7
:1021C400BB6900225A61FB6918462037BD4680BDB1
:1021D400840000200000AD0B0A00AD0B0B00AD0B1A
:1021E4000800AD0B80B483B000AF78607B681B79C6
:1021F4001946094A0B46DB000B449B001344143375
:102204001B68002B14BF01230023DBB218460C37D4
:10221400BD465DF8047B70478400002080B58AB019
:1022240000AFF860B9607A60FB681B791A46134600
:10223400DB0013449B00584A1344BB61574B7B6239
:10224400FB681B68B9681846FFF769F9034683F011
:102254000103DBB2002B03D0514B7B627B6A97E016
:10226400002387F82330BB695B68002B06D0FB682A
:102274001B684FF404711846FFF7D9FBBB699B69CF
:10228400002B15D0BB69DB69002B0ED0BB695B68E2
:10229400002B06D0FB681B684FF404711846FFF747
:1022A400B7FB404B7B627B6A72E0012387F82330E3
:1022B40097F8233083F00103DBB2002B09D0BB690C
:1022C4007A689A61BB69BA68DA60BB690022DA612C
:1022D40005E0BB69BA681A61BB697A68DA61FB68B0
:1022E4001B684FF488711846FFF772FBFB681B6884
:1022F4004FF4A2711846FFF76BFBFB681B687A6802
:10230400B9681846FFF7F2FB0023FB6197F8233006
:10231400002B06D0FB681B6820211846FFF769FBD9
:1023240014E0BB69DB683B61BB699B697B61FB684B
:102334001A68BB695B68002B02D107F1100300E047
:10234400002319461046FFF71FFBF861BB695B6861
:10235400002B11D1BB6900229A61FB6903F400735D
:10236400002B01D0104B7B62FB6903F40033002B7C
:102374000DD00E4B7B620AE0BB69002283F821205A
:10238400FB681B684FF404711846FFF741FB7B6A36
:1023940018462837BD4680BD840000200000AD0BE0
:1023A4000A00AD0B0B00AD0B0100AD0B0800AD0B2B
:1023B40080B483B000AF7860044A7B68136000BFC8
:1023C4000C37BD465DF8047B704700BF10E000E0A9
:1023D40080B483B000AF7860044A7B68536000BF68
:1023E4000C37BD465DF8047B704700BF10E000E089
:1023F40080B400AF034B9B681846BD465DF8047B70
:10240400704700BF10E000E080B483B000AF786094
:10241400074B1B68074AA2FB03239B097A6802FB4C
:1024240003F318460C37BD465DF8047B704700BFC4
:1024340000000020D34D621080B500AF6FF07F40E4
:10244400FFF7C6FF0520FFF7B3FF00BF80BD80B5CF
:1024540084B000AF7860FFF7CBFFF86000BFFFF7F0
:10246400C7FF0246FB689B1A23F07F437A689A42AF
:10247400F5D800BF00BF1037BD4680BD80B584B01D
:1024840000AF78601E4B1B681E4AA2FB03239B0906
:102494001D4AB2FBF3F37A68B2FBF3F3FB60184B0B
:1024A4001B68184AA2FB03239B09174AB2FBF3F2E9
:1024B4007B68B3FBF2F101FB02F29B1ABB600FE0F5
:1024C4000F4B1B680F4AA2FB03239B090E4AB2FB66
:1024D400F3F31846FFF798FF03461846FFF7B7FFD4
:1024E400FB685A1EFA60002BEAD1B868FFF78CFF2C
:1024F40003461846FFF7ABFF00BF1037BD4680BD4B
:1025040000000020D34D6210FFFF7F0080B483B031
:1025140000AF78607B681B6800BF0C37BD465DF870
:10252400047B704780B400AF00BFBD465DF8047BF8
:10253400704780B483B000AF786039607B683A68D4
:10254400C3F8042300BF0C37BD465DF8047B704715
:1025540080B582B000AF78600B467B807B887A6858
:10256400134400221A607B887A6813441846FFF7E4
:10257400CDFF00BF0837BD4680BD80B483B000AF37
:10258400786039607B683A68C3F8082500BF0C3767
:10259400BD465DF8047B704780B483B000AF7860BB
:1025A4000B46FB70FA787B6813441A4601231360C8
:1025B40000BF0C37BD465DF8047B704780B483B020
:1025C40000AF0346FB71FB799B0003F5A0739BB23C
:1025D40018460C37BD465DF8047B704780B582B061
:1025E40000AF786039603B681B6819467868FFF76C
:1025F400C4FFFFF797FF00BF0837BD4680BD80B515
:1026040086B000AFF860B96011461A460B46FB71FC
:102614001346BB714FF48072B968F86800F03AF859
:102624004FF48272B968F86800F034F800237B61D3
:102634000DE07B69DBB21846FFF7C0FF03461A467C
:10264400B968F86800F026F87B6901337B617B691F
:10265400032BEED9FFF766FFBB79002B03D0B968D3
:10266400F868FFF766FFFFF75DFF00BF1837BD4648
:1026740080BD80B582B000AF78600B46FB70FB78FC
:1026840019467868FFF788FFFFF74CFF00BF08374B
:10269400BD4680BD80B584B000AFF860B960134614
:1026A400FB80FB88A3F580739B08012202FA03F3E5
:1026B4001A46BB681340002B04D0FB881946F868FF
:1026C400FFF746FF00BF1037BD4680BD80B586B01A
:1026D40000AFF860B9607A60FB685B791946224AFA
:1026E4007B6842F83130FB685B791F4ADB00134496
:1026F4001B79002B03D01D4B7B617B6930E0FB68A9
:102704001868BB689A7800230021FFF778FFBB683C
:102714001B883B61FB681B6807F1100211461846D1
:10272400FFF75CFFFB685B791846BB6819790E4AB2
:10273400C30013440A465A71FB685B791846BB68A8
:10274400D978094AC30013440A469A71FB685B7935
:10275400054ADB00134401221A71054B7B617B6936
:1027640018461837BD4680BDA80000200500AD0BF3
:102774000000AD0B80B582B000AF78607B681B6849
:1027840000211846FFF775FF7B685B79044ADB007C
:10279400134402221A7100BF0837BD4680BD00BF32
:1027A400A80000200A22002100F0F8B808B5064B62
:1027B400044613B10021AFF30080044B1B6803B13E
:1027C4009847204601F0D8FA00000000E8010020F4
:1027D40038B5104B04461D682B6BB3B9182000F0B4
:1027E400FFFA0246286320B90B4B46210B4800F040
:1027F4008FFA0B490B4BC0E900130B4B002183608C
:102804000B2383810120C2E904012B6B00221C618C
:102814005A6138BD10000020EC04000003050000DC
:102824000E33CDAB34126DE6ECDE0500164B10B55D
:102834001C68236BB3B9182000F0D2FA0246206357
:1028440020B9124B5221124800F062FA1149124B7E
:10285400C0E90013114B002183600B238381012005
:10286400C2E90401216B0E480B694C690D4A5843B7
:1028740002FB0400A3FB0232013340EB0200C1E976
:10288400043020F0004010BD10000020EC040000D3
:10289400030500000E33CDAB34126DE6ECDE05000B
:1028A4002DF451582D7F954C242B2DE9F047864665
:1028B400904601D8012B06D100F0FCF916230360E1
:1028C4000020BDE8F0870D4633482A4615F8014B31
:1028D400065D16F00806F8D12D2C10D12C780126AF
:1028E400951C33F0100215D1302C0DD12A7802F04A
:1028F400DF02582A08D16C78023510230AE02B2C09
:1029040004BF2C78951CECE7002BF6D1302C14BFB7
:102914000A23082306F1004C00220CF1FF3C104668
:10292400BCFBF3F903FB19CAA4F13007092F0FD834
:102934003C46A3421BDD571C07D0814514D301D16B
:10294400A24511DB00FB0340012215F8014BEBE724
:10295400A4F14107192F01D8373CEAE7A4F1610734
:10296400192F04D8573CE4E74FF0FF32EDE7531C2E
:1029740008D122236046CEF80030B8F1000FA0D071
:10298400691E06E006B14042B8F1000F99D0002A52
:10299400F6D1C8F8001094E7CC05000013460A46A7
:1029A400014602480068FFF77FBF00BF1000002007
:1029B400002310B504468360818119464366C281B1
:1029C40008228361C0E90033C0E904335C3000F0BD
:1029D40014F90D4B246263620C4BA3620C4BE3624B
:1029E4000C4B23630C4B9C4206D003F168029442C7
:1029F40002D0D0339C4205D104F15800BDE8104008
:102A040000F082B910BD00BF792B00009B2B0000A1
:102A1400D32B0000F72B0000B0000020024A03492A
:102A2400034800F069B800BF040000202936000004
:102A34001400002041680C4B994210B5044601D0A3
:102A440000F0F0FDA168094B994202D0204600F045
:102A5400E9FDE168064B994204D02046BDE81040E8
:102A640000F0E0BD10BD00BFB00000201801002040
:102A74008001002010B50B4B04210B4C0B4A20465F
:102A84001A600022FFF794FF04F168000122092173
:102A9400FFF78EFF04F1D00002221221BDE810409E
:102AA400FFF786BFE8010020B0000020212A0000C3
:102AB400014800F02AB900BFF1010020014800F0EC
:102AC40025B900BFF101002010B50446FFF7F0FF5F
:102AD400236A1BB1BDE81040FFF7F0BF044B23622B
:102AE400044B1B68002BF5D1FFF7C4FFF2E700BFCE
:102AF400392A0000E80100202DE9F84307468846FA
:102B040014460026D4E90195B9F1010905D52468D4
:102B1400002CF7D13046BDE8F883AB89012B07D9E7
:102B2400B5F90E30013303D029463846C047064371
:102B34006835E9E70EB400B59CB06FF000411DABF9
:102B440002900690079104910848094953F8042B10
:102B5400059102A90068019300F054FA029B002237
:102B64001A701CB05DF804EB03B07047100000202D
:102B74000802FFFF10B50C46B1F90E1000F076F80C
:102B84000028ABBF636DA3891B1823F48053ACBF2B
:102B94006365A38110BD2DE9F0411F468B8905466D
:102BA4000C46DB05164605D502230022B1F90E10AA
:102BB40000F04AF8A3893246B4F90E10284623F4EB
:102BC4008053A3813B46BDE8F04100F061B810B5E5
:102BD4000C46B1F90E1000F037F8431CA38915BF59
:102BE400606523F4805343F48053A38118BFA38109
:102BF40010BDB1F90E1000F017B802440346934219
:102C040000D1704703F8011BF9E7024610B51478A8
:102C140013460132002CFAD1013B11F8012B03F8C1
:102C2400012F002AF9D110BD38B50023054D044603
:102C340008462B6001F050F8431C02D12B6803B105
:102C4400236038BDEC01002038B50446064D084623
:102C5400114600222A601A4601F066F8431C02D18C
:102C64002B6803B1236038BDEC01002038B504465D
:102C7400064D0846114600222A601A4601F05CF807
:102C8400431C02D12B6803B1236038BDEC01002042
:102C940038B50446064D0846114600222A601A46F5
:102CA40001F062F8431C02D12B6803B1236038BDE4
:102CB400EC010020014B1868704700BF1000002091
:102CC40070B50D4D00260D4C641BA410A64209D10D
:102CD4000B4D00260B4C01F051F8641BA410A642C6
:102CE40005D170BD55F8043B01369847EEE755F819
:102CF400043B01369847F2E78C3D00008C3D000010
:102D04008C3D0000903D0000704770477047000004
:102D14001FB514461A46094B05461B68D8684CB1C2
:102D2400074B00910749CDE901342B4600F0A2FC82
:102D340000F0F7FC044B1C46F3E700BF1000002032
:102D44005C050000690500009705000038B50546DC
:102D5400002941D051F8043C0C1F002BB8BFE418E3
:102D640000F0E8F81D4A136833B96360146028461C
:102D7400BDE8384000F0E4B8A34208D9206821181F
:102D84008B4201BF19685B6809182160EDE71A4698
:102D94005B680BB1A342FAD911685018A0420BD159
:102DA40020680144501811608342E0D118685B68C0
:102DB400084453601060DAE702D90C232B60D6E78D
:102DC400206821188B4202BF19685B680918636088
:102DD40008BF21605460CAE738BD00BFF801002075
:102DE400024B0146186800F025B800BF100000200F
:102DF40070B50F4E0C460546316811B900F066FCFB
:102E040030602146284600F061FC431C03D14FF09A
:102E1400FF34204670BDC41C24F00304A042F8D043
:102E2400211A284600F052FC0130F2D1EFE700BF2E
:102E3400F40100202DE9F843CD1C064625F00305D6
:102E440008350C2D38BF0C25002D01DBA94204D90F
:102E54000C2333600020BDE8F883DFF8D48000F051
:102E640069F8D8F800301C4644BB29463046FFF7C1
:102E7400BFFF431C044658D1D8F800402746002F12
:102E840043D1002C4BD023683946304604EB030968
:102E940000F01CFC814542D1216830466D1A294658
:102EA400FFF7A6FF01303AD023682B442360D8F8FB
:102EB40000305A6862BBC8F800700FE02268521BE9
:102EC40020D40B2A17D96119A342256018BF596071
:102ED400636808BFC8F8001062514B60304600F0C8
:102EE4002FF804F10B00231D20F00700C21A1CBFA9
:102EF4001B1AA350AFE76268A3420CBFC8F80020B6
:102F04005A60EBE723466468AEE73C467F68B6E761
:102F14001A465B68A342FBD100235360DEE70C230F
:102F24003046336000F00CF894E70560D6E700BF44
:102F3400F80100200148FFF7E8BE00BFF0010020BF
:102F44000148FFF7E3BE00BFF00100202DE9F04780
:102F54001F468E6882460C46BE4290460B682DD8AA
:102F6400B1F90C2012F4906F26D06569096905EB5C
:102F74004505A3EB01097B1C05EBD5754B446D108E
:102F84009D4238BF1D46530527D52946FFF752FFFA
:102F9400064660B34A46216900F0B6FBA38923F4D0
:102FA400906343F08003A38126614E446561A5EBE1
:102FB400090526603E46A560BE4200D93E4632461B
:102FC4004146206800F068FBA36800209B1BA360B7
:102FD400236833442360BDE8F0872A4600F0A8FB49
:102FE40006460028E0D121695046FFF7AFFE0C23C6
:102FF4004FF0FF30CAF80030A38943F04003A381A7
:10300400E9E700002DE9F04F98468B899DB007460B
:103014001B060D46144610D50B6973B94021FFF702
:1030240009FF2860286130B90C233B604FF0FF3062
:103034001DB0BDE8F08F40236B610023CDF80C80F8
:103044004FF00109DFF8A081099320238DF829307E
:1030540030238DF82A3023469A4613F8012B0AB1FF
:10306400252AF9D1BAEB040B0BD05B46224629463C
:103074003846FFF76BFF013000F0A780099A5A44E5
:1030840009929AF80030002B00F09F8000234FF043
:10309400FF320AF1010A049307938DF853301A930F
:1030A400CDE90523544605224F4814F8011B00F0CE
:1030B4001DFB049AD8B9D00644BF20238DF85330A1
:1030C400110744BF2B238DF853309AF800302A2B74
:1030D40015D0079A544600204FF00A0C214611F8E7
:1030E400013B303B092B4BD9B0B1079214E0A0EB64
:1030F4000803A24609FA03F313430493D2E7039B9C
:10310400191D1B68002B0391BBBF5B4242F00202F6
:1031140007930793B8BF049223782E2B0AD16378C0
:103124002A2B32D1039B02341A1D1B6843EAE37332
:1031340003920593DFF8C0A003222178504600F0E3
:10314400D5FA38B1A0EB0A004022049B0134824036
:103154001343049314F8011B062224488DF8281005
:1031640000F0C4FA002836D0214B1BBB039B073365
:1031740023F0070308330393099B334409936AE755
:103184000CFB02320C460120A8E7002301344FF067
:103194000A0C19460593204610F8012B303A092AE7
:1031A40003D9002BC6D00591C4E70CFB01210446CA
:1031B4000123F0E703AB2A4604A9384600930D4BDC
:1031C400AFF30080421C0646D6D1AB895B063FF5BF
:1031D4002DAF09982CE703AB2A4604A9384600937F
:1031E400044B00F07DF8EDE798050000A20500000F
:1031F40000000000512F00009E0500002DE9F0475B
:10320400164698468A6807460B690C46DDF82090F6
:103214009342B8BF1346336091F843200AB1013397
:1032240033602368990642BF3368023333602568EC
:1032340015F0060506D104F1190AE36832689B1AF1
:10324400AB422BDC94F843302268003B18BF0123C7
:10325400920630D404F1430241463846C84701304F
:1032640023D023681A3454F80A2C03F00603042BE1
:103274000ABF54F80E5C002533684FF0000608BFFF
:10328400ED1A54F8123C08BF25EAE5759342C4BF11
:103294009B1AED18B5421AD1002008E001235246CA
:1032A40041463846C847013003D14FF0FF30BDE8EE
:1032B400F0870135C1E7E1185A1C3020023322445B
:1032C40081F8430094F8451082F84310C2E70123C3
:1032D400224641463846C8470130E6D00136D9E790
:1032E4002DE9FF470F7E914680460C46782F9A467B
:1032F4000C9E01F1430207D8622F0AD8002F00F078
:10330400D180582F00F0B88004F1420684F842704E
:103314003AE0A7F16303152BF6D801A151F823F085
:103324007D330000913300000D3300000D330000A5
:103334000D3300000D330000913300000D33000005
:103344000D3300000D3300000D3300008F340000F6
:10335400BB330000493400000D3300000D3300007E
:10336400B13400000D330000BB3300000D33000006
:103374000D3300005134000033681A1D1B6832609D
:1033840004F1420684F8423001239CE0336820684B
:10339400191D3160060601D51D6803E04506FBD5FD
:1033A400B3F90050002D03DA2D236D4284F8433025
:1033B40058480A2311E021683368080653F8045B6F
:1033C40002D4490648BFADB26F2F3360514814BFD1
:1033D4000A230823002184F843106668002EA6609F
:1033E40005DB21682E4321F0040121604BD01646F1
:1033F400B5FBF3F103FB1157C75D06F8017D2F46BA
:103404000D46BB42F4D9082B0BD12368DF0708D53E
:10341400236961689942DEBF302306F8013C06F156
:10342400FF36921B22614B4603AA21464046CDF843
:1034340000A0FFF7E3FE01304AD14FF0FF3004B0A3
:10344400BDE8F087236843F02003236078273248DF
:10345400236884F845701F06316851F8045B02D470
:103464005F0648BFADB23160D90744BF43F02003C3
:1034740023601DB11023ADE72648E9E7236823F054
:1034840020032360F6E71646BDE733682568181D58
:10349400616930602E061B6801D5196002E0680678
:1034A400FBD51980002316462361BCE7336800214D
:1034B4001A1D32601E686268304600F017F908B1C0
:1034C400801B606063682361002384F84330AAE7AB
:1034D4002369324649464046D0470130ADD023687F
:1034E4009B0713D4E068039B9842B8BF1846A6E72D
:1034F4000123324649464046D04701309DD001352C
:10350400E36803995B1AAB42F2DCEBE7002504F1B4
:103514001906F5E7A9050000BA050000B1F90C2069
:103524002DE9F041160705460C4654D44B68002B90
:1035340002DC0B6C002B48DDE66A002E45D000232C
:1035440012F480522F68216A2B6030D0626DA389F7
:10355400590705D56368D21A636B0BB1236CD21A71
:103564000023E66A216A2846B047431CA38906D192
:1035740029681D292BD82A4ACA40D60727D50022F4
:10358400D90462602269226004D5421C01D12B68EF
:1035940003B96065616B2F60B9B104F144039942CA
:1035A40002D02846FFF7D2FB002363630DE001231A
:1035B4002846B0470246501CC9D12B68002BC6D000
:1035C4001D2B01D0162B1DD12F60002021E043F0CC
:1035D40040031BB21AE00F69002FF6D093070E6860
:1035E4000F600CBF4B690023A6EB07088B60B8F192
:1035F400000FEADD43463A46216A2846A66AB047E8
:10360400002808DCB4F90C3043F040034FF0FF30DD
:10361400A381BDE8F0810744A8EB0008E7E700BFF9
:103624000100402038B50B6905460C4613B9002546
:10363400284638BD18B1036A0BB9FFF745FAB4F947
:103644000C30002BF3D0626ED00704D4990502D459
:10365400A06DFFF75AFB28462146FFF75FFF636E14
:103664000546DA07E4D4A3899B05E1D4A06DFFF7EE
:103674004DFBDDE70EB403B503AB0146054853F833
:10368400042B0068019300F0ABF802B05DF804EB82
:1036940003B0704710000020884210B501EB02040B
:1036A40002D98442234607D8431EA14208D011F808
:1036B400012B03F8012FF8E7024401468A4200D1A6
:1036C40010BD13F8014D02F8014DF7E738B500239A
:1036D400054D044608462B6000F036FB431C02D11E
:1036E4002B6803B1236038BDEC010020C9B2034646
:1036F400024410B59342184601D1002003E0047837
:1037040001338C42F6D110BD0A44431E914200D1CC
:10371400704710B511F8014B914203F8014FF9D1EC
:1037240010BD062008B500F02FFA012000F024FB9C
:103734002DE9F041074614460D4621B91146BDE86E
:10374400F041FFF777BB2AB92546FFF7FFFA284671
:10375400BDE8F08100F034FA8442064602D8B4EBA6
:10376400500FF4D821463846FFF764FB804608B969
:103774004546ECE7B4422246294628BF3246FFF7C5
:10378400C3FF29463846FFF7E1FAF1E79368013BA6
:10379400002B936010B408DA9469A34201DB0A2970
:1037A40003D15DF8044B00F033B91368581C106062
:1037B400084619705DF8044B7047F8B506460F4685
:1037C4001446D518AC4201D1002007E03A4614F85B
:1037D400011B3046FFF7DAFF431CF3D1F8BD0000AC
:1037E4002DE9F04F0D469DB014469846064618B193
:1037F400036A0BB9FFF768F96B6ED90705D4AB8977
:103804009A0502D4A86DFFF780FAAB891B0701D58E
:103814002B699BB92946304600F038F970B16B6EBC
:10382400DC0704D54FF0FF301DB0BDE8F08FAB8945
:103834009805F7D4A86DFFF769FAF3E70023CDF8EC
:103844000C804FF00109DFF8B481099320238DF82F
:10385400293030238DF82A3023469A4613F8012B59
:103864000AB1252AF9D1BAEB040B0BD05B462246E8
:1038740029463046FFF7A1FF013000F0A780099ADE
:103884005A4409929AF80030002B00F09F800023DC
:103894004FF0FF320AF1010A049307938DF8533075
:1038A4001A93CDE9052354460522544814F8011B04
:1038B400FFF71CFF049AD8B9D10644BF20238DF822
:1038C4005330130744BF2B238DF853309AF800303C
:1038D4002A2B15D0079A544600204FF00A0C214693
:1038E40011F8013B303B092B4BD9B0B1079214E0DE
:1038F400A0EB0803A24609FA03F313430493D2E7A7
:10390400039B191D1B68002B0391BBBF5B4242F054
:10391400020207930793B8BF049223782E2B0AD18F
:1039240063782A2B32D1039B02341A1D1B6843EAA5
:10393400E37303920593DFF8D4A003222178504661
:10394400FFF7D4FE38B1A0EB0A004022049B0134F7
:1039540082401343049314F8011B062228488DF86F
:103964002810FFF7C3FE00283FD0264B1BBB039B48
:10397400073323F0070308330393099B3B4409935C
:103984006AE70CFB02320C460120A8E7002301344D
:103994004FF00A0C19460593204610F8012B303AD3
:1039A400092A03D9002BC6D00591C4E70CFB0121D9
:1039B40004460123F0E703AB2A4604A930460093EA
:1039C400114BAFF300800746781CD6D16B6ED90734
:1039D40005D4AB899A0502D4A86DFFF797F9AB8992
:1039E4005B063FF51FAF09981EE703AB2A4604A9FF
:1039F40030460093044BFFF773FCE4E7980500009E
:103A0400A205000000000000BF3700009E05000072
:103A1400F8B50E461446054618B1036A0BB9FFF70C
:103A240053F8A369A360A3891A0701D5236943B98D
:103A34002146284600F02AF818B14FF0FF373846DF
:103A4400F8BD2368F6B222693746981A636983423F
:103A540005DC21462846FFF7E5FD0028EDD1A368E3
:103A6400013BA36023685A1C22601E70431C6269D8
:103A74009A4204D0A389DB07E1D50A2EDFD121467F
:103A84002846FFF7CFFD0028D9D0D6E738B5294B13
:103A940005460C46186818B1036A0BB9FFF714F809
:103AA400B4F90C30190722D4DA0607D409222A60A3
:103AB40043F040034FF0FF30A38133E0580712D5A1
:103AC400616B41B104F14403994202D02846FFF7E7
:103AD4003DF900236363A38923F02403A381002316
:103AE400636023692360A38943F00803A3812369E6
:103AF4004BB9A38903F42073B3F5007F03D02146A7
:103B0400284600F08AF8B4F90C3013F001020AD008
:103B14000022A26062695242A261226942B913F092
:103B24008000C5D138BD990758BF6269A260F4E727
:103B34000020F7E7100000201F2938B505460C4681
:103B440004D9162303604FF0FF3038BDC26B12B1A5
:103B540052F821304BB9284600F030F8224601468D
:103B64002846BDE8384000F017B8012B0AD0591C8C
:103B740003D1162303600120E7E70021204642F821
:103B8400241098470020E0E7024B01461868FFF72D
:103B9400D3BF00BF1000002038B50023064D0446F3
:103BA400084611462B6000F0B7F8431C02D12B687D
:103BB40003B1236038BD00BFEC01002000F09CB8C5
:103BC40051F8043C181F002BBCBF0B58C018704799
:103BD40070B50C46B1F90E1096B0154600291E4674
:103BE4000CDAA389002113F0800F14BF40234FF493
:103BF4008063002031602B6016B070BD6A4600F00F
:103C040049F80028EDDB019901F47041A1F5005356
:103C1400594259414FF48063EBE78B89F7B59D070F
:103C240006460C4607D504F14703236023610123AC
:103C3400636103B0F0BD01AB6A46FFF7C9FF009FA3
:103C4400054630463946FFF7F5F848B9B4F90C3063
:103C54009A05EED423F0030343F00203A381E2E7C1
:103C6400A389206043F08003A381019BC4E9040776
:103C74005BB1B4F90E10304600F01EF828B1A389E8
:103C840023F0030343F00103A381A3891D43A5810A
:103C9400CFE7000038B50023064D04460846114618
:103CA4002B6000F021F8431C02D12B6803B1236080
:103CB40038BD00BFEC01002038B50023054D044693
:103CC40008462B6000F020F8431C02D12B6803B196
:103CD400236038BDEC010020024B58224FF0FF3026
:103CE4001A607047EC010020024B58224FF0FF305D
:103CF4001A607047EC010020024B58224FF0FF304D
:103D04001A607047EC010020024B582200201A6010
:103D1400704700BFEC010020024B58224FF0FF30E7
:103D24001A607047EC010020024B58224FF0FF301C
:103D34001A607047EC010020024B58224FF0FF300C
:103D44001A607047EC010020054A0346106810B160
:103D5400034413607047034803441360704700BF73
:103D6400FC01002000020020024B58224FF0FF30DB
:103D74001A607047EC010020FEE700BFF8B500BFF1
:103D8400F8BC08BC9E46704741070000F8B500BF68
:103D9400F8BC08BC9E4670471907000000000000EC
:103DA400EC3D000000000020180000004C3E000024
:103DB40060000020000000004C3E00006000002075
:103DC400000000004C3E00006000002000000000E5
:103DD40060000020680000000002002000000000D5
:083DE4000002002000000000B5
:103DEC000090D0030000000003000000B000002091
:103DFC001400002000000000B0000020180100207A
:103E0C008001002000000000000000000000000005
:103E1C000000000000000000000000000000000096
:103E2C000000000000000000000000000000000086
:103E3C000000000000000000000000000000000076
:04000003000007E111
:00000001FF
