:1000000000000420C1070000310800003308000090
:100010003508000037080000390800003B080000E0
:100020000000000000000000000000003D0800008B
:100030003F080000000000004108000043080000E5
:1000400045080000450800000000000045080000C9
:100050000000000045080000000000000000000053
:10006000450800004508000045080000450800005C
:10007000450800004508000045080000450800004C
:1000800045080000450800000000000000000000D6
:1000900045080000450800000000000000000000C6
:1000A000450800004508000045080000450800001C
:1000B000450800004508000045080000450800000C
:1000C00045080000450800004508000045080000FC
:1000D0004508000000000000450800000000000086
:1000E0004508000000000000450800004508000029
:1000F0000000000045080000000000004508000066
:1001000000000000000000000000000045080000A2
:1001100045080000000000004508000045080000F8
:100120000000000045080000000000000000000082
:1001300000000000000000000000000000000000BF
:1001400000000000000000000000000000000000AF
:100150004508000000000000000000000000000052
:10016000000000000000000000000000000000008F
:10017000000000000000000000000000000000007F
:10018000000000000000000000000000000000006F
:10019000000000000000000000000000000000005F
:1004000003000000070000000F0000001F000000B4
:100410003F0000007F00000054657374696E672020
:10042000756E62616C616E6365642074726565737C
:10043000206F662076616C75657320002C200000AB
:100440002E0000004372656174696E6720747265E6
:100450006520666F7220747265652073697A653AEB
:10046000200000005374617274696E6720736561C7
:1004700072636820666F72200000000020696E20A1
:10048000747265652E2E2E0056616C756520666F40
:10049000756E642061667465722000002074696363
:1004A0006B732100202E2E2E2077686963682069E7
:1004B000732061726F756E64200000007820736C89
:1004C0006F77657220636F6D706172656420746F01
:1004D000207468652066697273742028756E626185
:1004E0006C616E63656429206D65617375726D65FD
:1004F0006E742E0054657374696E672062616C615E
:100500006E636564207472656573206F6620766122
:100510006C7565732000000042616C616E63696EEA
:100520006720747265652E2E2E00000078206661AB
:1005300073746572207468616E2074686520756ECE
:1005400062616C616E63656420636F756E74657261
:1005500070617274206F66207468652073616D65C8
:1005600020747265652E00007820736C6F77657259
:1005700020636F6D706172656420746F20746865AC
:10058000206669727374202862616C616E636564B1
:1005900029206D65617375726D656E7420616E647E
:1005A000200000006E65775F6E6F646520213D203E
:1005B0004E554C4C000000004253547265652E634A
:1005C0000000000061727220213D204E554C4C000D
:1005D00073697A6520213D204E554C4C0000000087
:1005E000200000006372656174655F747265655F09
:1005F0006E6F64650000000077726974655F736FE9
:10060000727465645F746F5F61727261795F68654F
:100610006C7065720000000077726974655F736FBB
:10062000727465645F746F5F61727261790000005B
:100630000D0A00001B630000256400002C20667575
:100640006E6374696F6E3A200061737365727469CA
:100650006F6E2022257322206661696C65643A20E2
:1006600066696C6520222573222C206C696E6520DA
:100670002564257325730A00232D302B2000686C18
:100680004C006566674546470030313233343536B5
:1006900037383941424344454600303132333435EE
:0B06A00036373839616263646566001C
:0806AC009800000001000000AD
:1006B4000348044B834202D0034B03B118477047ED
:1006C4005C0000205C00002000000000064B07498D
:1006D400C91A891048BF0131491003D0044B0BB12A
:1006E40001481847704700BF5C0000205C000020F0
:1006F4000000000010B5064C237843B9FFF7D8FF7B
:10070400044B13B10448AFF300800123237010BDE0
:100714005C00002000000000F441000008B5054B17
:100724001BB105490548AFF30080BDE80840FFF759
:10073400CDBF00BF0000000060000020F4410000B5
:10074400A3F5803A704700BF174B002B08BF134B2B
:100754009D46FFF7F5FF00218B460F461348144AC8
:10076400121A02F08EF80E4B002B00D098470D4B56
:10077400002B00D098470020002104000D000D48F4
:10078400002802D00C48AFF3008002F0E7F8200004
:10079400290000F08BFB01F037FE00BF00000800C9
:1007A4000000000000000000000004205C000020A5
:1007B400F401002000000000000000000F49104A6E
:1007C400104B00F010F81049104A114B00F00BF8D0
:1007D4001049114A114B00F006F81149114A124B05
:1007E40000F001F806E0521A03DD043A98588850E4
:1007F400FBDC704700F0FEF9FFF7A6FF00000020C5
:100804005C000020404200005C0000205C000020EE
:100814009C4200005C0000205C0000209C42000020
:100824005C0000205C0000209C420000FEE7FEE724
:10083400FEE7FEE7FEE7FEE7FEE7FEE7FEE7FEE78C
:10084400FEE700BF80B483B000AF154B1B687B602C
:10085400144B1B683B607B68072B19D13B68023B38
:10086400032B13D801A252F823F000BF8108000023
:1008740085080000890800008D080000012308E0B5
:10088400002306E0002304E0002302E0002300E04C
:10089400002318460C37BD465DF8047B704700BF43
:1008A4003001FF003401FF0080B483B000AF154B6A
:1008B4001B687B60144B1B683B607B68072B19D15A
:1008C4003B68023B032B13D801A252F823F000BF6C
:1008D400E5080000E9080000ED080000F108000048
:1008E400012308E0012306E0002304E0002302E0E2
:1008F400002300E0002318460C37BD465DF8047B56
:10090400704700BF3001FF003401FF0080B483B0A2
:1009140000AF154B1B687B60144B1B683B607B6806
:10092400072B19D13B68023B032B13D801A252F8C1
:1009340023F000BF490900004D09000051090000DF
:1009440055090000012308E0002306E0002304E029
:10095400002302E0002300E0002318460C37BD46C4
:100964005DF8047B704700BF3001FF003401FF00D5
:1009740080B483B000AF154B1B687B60144B1B68BD
:100984003B607B68072B19D13B68023B032B13D8D0
:1009940001A252F823F000BFAD090000B109000024
:1009A400B5090000B9090000012308E0012306E0AD
:1009B400012304E0012302E0012300E000231846A0
:1009C4000C37BD465DF8047B704700BF3001FF0063
:1009D4003401FF0080B483B000AF154B1B687B600B
:1009E400144B1B683B607B68072B19D13B68023BA7
:1009F400032B13D801A252F823F000BF110A000000
:100A0400150A0000190A00001D0A0000012308E06D
:100A1400002306E0002304E0002302E0002300E0BA
:100A2400002318460C37BD465DF8047B704700BFB1
:100A34003001FF003401FF0080B483B000AF154BD8
:100A44001B687B60144B1B683B607B68072B19D1C8
:100A54003B68023B032B13D801A252F823F000BFDA
:100A6400750A0000790A00007D0A0000810A00006E
:100A7400012308E0002306E0002304E0002302E051
:100A8400002300E0002318460C37BD465DF8047BC4
:100A9400704700BF3001FF003401FF0080B483B011
:100AA40000AF154B1B687B60144B1B683B607B6875
:100AB400072B19D13B68023B032B13D801A252F830
:100AC40023F000BFD90A0000DD0A0000E10A00009B
:100AD400E50A0000012308E0002306E0002304E007
:100AE400002302E0002300E0002318460C37BD4633
:100AF4005DF8047B704700BF3001FF003401FF0044
:100B040080B483B000AF154B1B687B60144B1B682B
:100B14003B607B68072B19D13B68023B032B13D83E
:100B240001A252F823F000BF3D0B0000410B00006E
:100B3400450B0000490B0000012308E0012306E0F7
:100B4400012304E0012302E0012300E0002318460E
:100B54000C37BD465DF8047B704700BF3001FF00D1
:100B64003401FF0080B483B000AF154B1B687B6079
:100B7400144B1B683B607B68072B19D13B68023B15
:100B8400032B13D801A252F823F000BFA10B0000DD
:100B9400A50B0000A90B0000AD0B0000002308E02A
:100BA400002306E0002304E0012302E0012300E027
:100BB400002318460C37BD465DF8047B704700BF20
:100BC4003001FF003401FF0080B400AF074B084A36
:100BD4001B68C2F84435054B054ADB69C2F84C353D
:100BE40000BFBD465DF8047B704700BF0080FF0076
:100BF4000060005080B582B000AFFFF74FFF03469E
:100C0400002B0CD0734B1B68002B08D1714B0D22A9
:100C14001A60714B01221A606F4B00221A60002384
:100C24007B6000237B6011E04FF47F024FF47F016F
:100C34007B68603351F8333019467B686033DB00DE
:100C440013445B680B607B6801337B607B681F2BFC
:100C540008D84FF47F027B68603352F83330B3F125
:100C6400FF3FE1D1FFF7B6FE0346002B05D05B4BF7
:100C740029221A605A4B03221A60FFF7E3FD034648
:100C8400002B07D0574B584A1A604FF050230122CB
:100C9400C3F85825FFF708FE0346002B02D0534B38
:100CA40000221A60FFF732FE0346002B11D04FF0EA
:100CB4005023D3F8003403F00103002B09D04FF084
:100CC40050230022C3F814214FF050230022C3F80C
:100CD4001821FFF74DFE0346002B0DD04FF0502393
:100CE400D3F8003403F00103002B05D04FF0502358
:100CF4006FF00102C3F80024FFF79EFE0346002BA9
:100D040002D0364B65221A60FFF7FAFE0346002B29
:100D140021D0374B1B68002B1DDA4FF050230322E0
:100D2400C3F818254FF0502301229A6000BF4FF0FA
:100D34005023D3F80431002BF9D04FF05023002274
:100D4400C3F804214FF050230122DA604FF05023FE
:100D54000122C3F81825FFF705FF0346002B1AD01C
:100D64001E4B7E221A60234B7E221A60224B7F2266
:100D74001A60224B00221A60214B00221A60214B78
:100D840000221A60204B00221A60204B00221A60B5
:100D94001F4B00221A6000F03FF81E4BD3F88C3032
:100DA4001C4A43F44063C2F88C30FFF70DFF194B23
:100DB400D3F88830174A43F47003C2F88830BFF37D
:100DC4004F8F00BFBFF36F8F00BF00BF0837BD4612
:100DD40080BD00BF204A00501C4900500C47005001
:100DE4003C470050309503504400EFBE4C2503505F
:100DF400202403503C49005018210050049E035005
:100E0400089E035010111050242100502C21005032
:100E1400A012205000ED00E080B485B000AF144B68
:100E2400FB60144BBB604FF47F037B6007E0FA6800
:100E3400131FFB60BB68191FB96012681A60FA6857
:100E44007B689A42F3D23F233B600B4A3B6803F52D
:100E5400E07352F82330084923F010023B6803F58D
:100E6400E07341F823201437BD465DF8047B7047D6
:100E7400FC0FFF00FCFF07200030005080B400AFDF
:100E8400034B9B681846BD465DF8047B704700BF62
:100E940010E000E080B400AF034B00229A6000BF72
:100EA400BD465DF8047B704710E000E0B0B594B037
:100EB40000AF3B46184600F08DFB01F07BFA00F0D2
:100EC40015FC00F0C5FA03463B620023FB6407F1FE
:100ED400080300221A605A609A60DA601A615A6143
:100EE400A74800F0B7FB0023BB6413E0A54ABB6C22
:100EF40052F82330184600F003FCBB6C052B03D0DA
:100F0400A14800F0A7FB02E0A04800F0A3FBBB6CE3
:100F14000133BB64BB6C052BE8DD00F0DDFB002373
:100F24007B6491E09A4800F095FB964A7B6C52F8FA
:100F34002330184600F0E4FB00F0CEFB01233B64B1
:100F440008E007F12003396C184600F089FA3B6C7D
:100F540001333B648B4A7B6C52F823303A6C9A42DF
:100F6400EFDD8C4800F076FB864A7B6C52F8233028
:100F7400184600F0C5FB884800F06CFB00F0ACFBA1
:100F8400FFF788FFFFF77AFFB8623A6A7D497B6C06
:100F940051F823301946104600F098FAFFF76EFF17
:100FA40078627E4800F056FBBA6A7B6AD31A184608
:100FB40000F0A6FB7A4800F04DFBBA6A7B6AD31AAC
:100FC4001A467B6C9B0050333B4443F8482CFB6C23
:100FD400002B04D1BA6A7B6AD31AFB642AE07148F5
:100FE40000F038FBBA6A7B6AD31A184602F0B4FDE3
:100FF40004460D46F86C02F0BFFD02460B4620463F
:10100400294602F04DFF02460B4643EC172BB0EE87
:10101400470AF0EE670A02F0DDFB53EC102B104692
:10102400194603F0ADF80346184600F069FB5E4824
:1010340000F010FB00F050FB07F12003184600F00D
:1010440089FA7B6C01337B647B6C052B7FF76AAF79
:1010540000F042FB554800F0FDFA0023FB6313E067
:10106400484AFB6B52F82330184600F049FBFB6BEF
:10107400052B03D0444800F0EDFA02E0434800F0A9
:10108400E9FAFB6B0133FB63FB6B052BE8DD00F036
:1010940023FB0023FB640023BB63D3E03C4800F044
:1010A400D9FA384ABB6B52F82330184600F028FBB3
:1010B40000F012FB01237B6308E007F12003796B46
:1010C400184600F0CDF97B6B01337B632D4ABB6B73
:1010D40052F823307A6B9A42EFDD354800F0BAFAC1
:1010E40000F0FAFA07F12003184600F054FA2948F0
:1010F40000F0B0FA234ABB6B52F82330184600F0D4
:10110400FFFA254800F0A6FA00F0E6FAFFF7C2FE5F
:10111400FFF7B4FE38633A6A1A49BB6B51F82330BF
:101124001946104600F0D2F9FFF7A8FEF8621B48F2
:1011340000F090FA3A6BFB6AD31A184600F0E0FA12
:10114400174800F087FAFB6C002B35D13A6BFB6A29
:10115400D31AFB64134800F07DFABB6B9B00503339
:101164003B4453F8483C396BFA6A8A1A93FBF2F30E
:10117400184600F0C5FA0F4800F06CFA58E000BFBA
:1011840018040000000400003C04000040040000B7
:1011940044040000640400007C040000880400008F
:1011A4009C040000A4040000BC040000F40400003B
:1011B400180500002C050000284800F04BFA3A6B93
:1011C400FB6AD31A184602F0C7FC04460D46F86CB5
:1011D40002F0D2FC02460B462046294602F060FE8D
:1011E40002460B4643EC172BB0EE470AF0EE670AB3
:1011F40002F0F0FA53EC102B1046194602F0C0FF2F
:101204000346184600F07CFA154800F023FABB6B3D
:101214009B0050333B4453F8483C396BFA6A8A1AB2
:1012240093FBF2F3184600F06BFA0E4800F012FA42
:1012340000F052FA07F12003184600F08BF9BB6B5B
:101244000133BB63BB6B052B7FF728AF00F044FA77
:10125400002318465037BD46B0BD00BFA4040000AB
:10126400680500002C05000080B584B000AF7860EC
:101274000C2001F0DBF80346FB60FB68002B05D172
:10128400094B0A4A10210A4801F0A0F8FB687A6861
:101294001A60FB6800225A60FB6800229A60FB68AF
:1012A40018461037BD4680BDA4050000E4050000C3
:1012B400B805000080B584B000AFF860B9607A600A
:1012C400FB68002B01D1BB6840E0FB685B687A686F
:1012D400B9681846FFF7EEFFB860BB68002B0DD164
:1012E400042001F0A3F80346BB60BB68002B17D1B0
:1012F400184B194A2121194801F068F87B681B68CA
:1013040001339B001946B86801F04EF9B860BB6818
:10131400002B05D10F4B104A2421104801F056F838
:101324007B681B689B00BA681344FA6812681A60E9
:101334007B681B685A1C7B681A60FB689B687A6828
:10134400B9681846FFF7B6FFB860BB68184610378F
:10135400BD4680BDC4050000F8050000B8050000C6
:1013640080B584B000AF7860042001F05FF80346D4
:10137400FB60FB68002B05D1094B0A4A34210A485B
:1013840001F024F8FB6800221A60FA6800217868EA
:10139400FFF790FF034618461037BD4680BD00BFD7
:1013A400D005000018060000B805000080B586B01E
:1013B40000AFF860B9607A607B68DA0F13445B10A1
:1013C4007B617B699B00BA6813441B683B61FB68C3
:1013D4001B68002B05D13869FFF746FF0246FB68FE
:1013E4001A60FB681B683A691A607B68012B2BD072
:1013F4007B69002B0ADDFB681B68181D7B68DA0F0C
:1014040013445B101A46B968FFF7D0FF7B68013BB1
:101414007A699A4219DAFB681B6803F108007B6851
:10142400DA0F13445B1001339B00BA68D1187B6850
:10143400DA0F13445B105B421A467B681344013B8A
:101444001A46FFF7B3FF00E000BF1837BD4680BD62
:1014540080B400AF00231846BD465DF8047B704796
:1014640080B582B000AF786039607B681B68002B60
:1014740006D13868FFF7F8FE02467B681A6022E05E
:101484007B681B681B683A689A421BD07B681B68A0
:101494001B683A689A4207DA7B681B680433396828
:1014A4001846FFF7DDFF0EE07B681B681B683A688F
:1014B4009A4208DD7B681B68083339681846FFF7D1
:1014C400CFFF00E000BF0837BD4680BD80B582B0C5
:1014D40000AF786039607B68002B01D100231AE0EB
:1014E4007B681B683A689A4201D1012313E07B6848
:1014F4001B683A689A4207DA7B685B683968184661
:10150400FFF7E4FF034606E07B689B6839681846EA
:10151400FFF7DCFF034618460837BD4680BD90B58B
:1015240083B000AF78607B68002B01D100230DE00D
:101534007B685B681846FFF7F2FF03465C1C7B6818
:101544009B681846FFF7EBFF0346234418460C3705
:10155400BD4690BD80B582B000AF78607B681B68E3
:10156400002B14D07B681B6804331846FFF7F2FF86
:101574007B681B6808331846FFF7ECFF7B681B6821
:10158400184600F05BFF7B6800221A6000E000BF91
:101594000837BD4680BD80B584B000AF78607B68F5
:1015A4001B681846FFF7BBFFF8607B681B6818468A
:1015B400FFF7D6FEB8607868FFF7CCFFFA68B96821
:1015C4007868FFF7F3FEB86800F038FF00BF103703
:1015D400BD4680BD80B58EB000AF78601B4B3B63C9
:1015E400002387F8343007F10C0324220021184625
:1015F40001F047F91423FB6016233B614FF0FF33DE
:101604007B614FF0FF33BB614FF0EB733B62072309
:1016140087F8243007F10C0107F130030022184643
:1016240000F0B6FD0A4B1A4607F1300393E80300B5
:1016340082E803007B681A4607F1300393E803004D
:1016440082E8030078683837BD4680BD00800050CA
:101654007800002080B5C4B000AF07F58873A3F507
:101664008673186007F58873A3F5827318464FF4E0
:1016740080731A46002101F004F907F58873A3F575
:10168400867307F10C021968104601F002F9002371
:10169400C7F80C310EE007F10C02D7F80C31D11861
:1016A400002301220B4800F0CDFDD7F80C310133A3
:1016B400C7F80C3107F58873A3F58272D7F80C319B
:1016C40013441B78002BE6D100BF00BF07F58877D1
:1016D400BD4680BD7800002080B500AF0248FFF70A
:1016E400B9FF00BF80BD00BF3006000080B500AF69
:1016F4000248FFF7AFFF00BF80BD00BF3406000003
:1017040080B59CB000AF786007F108036422002123
:10171400184601F0B6F807F108037A680F4918462D
:1017240001F04CF80023FB660BE007F10802FB6EA6
:10173400D118002301220A4800F084FDFB6E013316
:10174400FB6607F10802FB6E13441B78002BECD1F7
:1017540000BF00BF7037BD4680BD00BF3806000023
:101764007800002080B483B000AF78607B681B6889
:1017740000BF0C37BD465DF8047B704780B400AFF2
:1017840000BFBD465DF8047B704780B400AF00BF66
:10179400BD465DF8047B704780B400AF00BFBD4612
:1017A4005DF8047B704780B483B000AF7860396023
:1017B4003B6803F06043B3F1005F0CBF01230023D7
:1017C400DBB218460C37BD465DF8047B704780B524
:1017D40082B000AF78600B467B807B887A681344C4
:1017E40000221A607B887A6813441846FFF7BAFF10
:1017F40000BF0837BD4680BD80B483B000AF7860B9
:101804000B467B807B887A6813441B68002B14BFCB
:1018140001230023DBB218460C37BD465DF8047B78
:10182400704780B483B000AF786039607B683A68F1
:10183400C3F8042300BF0C37BD465DF8047B704732
:1018440080B485B000AF78607B68D3F88034FB60E7
:101854007B68FA68C3F88024FB6818461437BD46D1
:101864005DF8047B704780B483B000AF78607B6818
:101874000822C3F8002500BF0C37BD465DF8047B81
:10188400704780B483B000AF78607B680022C3F8EF
:10189400002500BF0C37BD465DF8047B704780B45B
:1018A40085B000AFF860B9607A60FB68BA68C3F8C5
:1018B4000C25FB687A68C3F8142500BF1437BD46AD
:1018C4005DF8047B704780B485B000AFF860B96000
:1018D4007A60FB68BA68C3F80825FB687A68C3F8BD
:1018E400102500BF1437BD465DF8047B704780B4F3
:1018F40083B000AF78600B46FB70FB787A681344C2
:1019040001221A6000BF0C37BD465DF8047B7047A6
:1019140080B483B000AF786039603B685A783B6824
:101924009B781343DBB21A463B689B8813433A689F
:1019340012781A437B68C3F86C2500BF0C37BD4688
:101944005DF8047B704780B483B000AF7860396081
:101954007B683A68C3F8242500BF0C37BD465DF8A0
:10196400047B704780B485B000AFF860B9607A60DA
:10197400BA68FB68C3F84425FB687A68C3F848254D
:1019840000BF1437BD465DF8047B704780B483B054
:1019940000AF78607B68D3F83C3518460C37BD46F9
:1019A4005DF8047B704780B582B000AF7860396021
:1019B4003B681B6919467868FFF7C5FF3B68143319
:1019C40019467868FFF7A4FF3B689B7E83F0010308
:1019D400DBB2002B07D03B6819683B685B681A468A
:1019E4007868FFF75CFF3B681B7D012B0ED13B68D9
:1019F4009B7E83F00103DBB2002B07D03B68996820
:101A04003B68DB681A467868FFF75DFFFFF7B6FEB0
:101A140000BF0837BD4680BD80B584B000AFF86014
:101A2400B96011461A460B46FB711346BB714FF45D
:101A34008072B968F86800F016F94FF48272B968D8
:101A4400F86800F010F94FF48472B968F86800F08F
:101A54000AF94FF48872B968F86800F004F94FF491
:101A64008E72B968F86800F0FEF84FF49072B968A5
:101A7400F86800F0F8F84FF49272B968F86800F06A
:101A8400F2F84FF4A272B968F86800F0ECF84FF479
:101A9400A672B968F86800F0E6F84FF4A872B9685D
:101AA400F86800F0E0F84FF4AC72B968F86800F038
:101AB400DAF8FFF763FEBB79002B03D0B968F86846
:101AC400FFF7AFFEFFF75AFE00BF1037BD4680BDDB
:101AD40080B586B000AFF860B9607A607A68B9689A
:101AE400F86800F013F97861FFF748FE7B6918463F
:101AF4001837BD4680BD80B582B000AF78603960CC
:101B04000C217868FFF7F3FEFFF738FE00BF0022D0
:101B14004FF48001786800F0F9F80346002BF6D002
:101B24003B68002B13D03B685B68002B0FD004216B
:101B34007868FFF7DCFEFFF721FE00BF3A684FF438
:101B44000031786800F0E2F80346002BF6D000BFBD
:101B54000837BD4680BD000080B584B000AF786012
:101B64000B46FB700023FB6008217868FFF7BFFE7B
:101B7400FB78002B0CD00A4BBB60FFF7FFFD002263
:101B8400B9687868FFF7A4FFF860FB68002BF6D00B
:101B9400FFF7F4FDFB6818461037BD4680BD00BF53
:101BA4000001400080B582B000AF78600B467B80B6
:101BB4007B8819467868FFF70AFEFFF7DFFD00BF50
:101BC4000837BD4680BD80B584B000AF7860FFF7AC
:101BD400E3FD7868FFF734FEF860FFF7DDFDFB688E
:101BE40018461037BD4680BD80B582B000AF78601E
:101BF4007868FFF738FEFFF7C1FD00BF0837BD4620
:101C040080BD80B582B000AF78607868FFF739FE98
:101C1400FFF7B4FD00BF0837BD4680BD80B582B074
:101C240000AF78600B46FB70FB7819467868FFF7C5
:101C34005EFEFFF7A3FD00BF0837BD4680BD80B53B
:101C440084B000AFF860B9607A60BB68002B06D03E
:101C54007A68B968F868FFF785FEFFF78FFD00BF63
:101C64001037BD4680BD80B584B000AFF860B96060
:101C74001346FB80FB88A3F580739B08012202FABC
:101C840003F31A46BB681340002B04D0FB881946A3
:101C9400F868FFF79CFD00BF1037BD4680BD80B5D6
:101CA40084B000AFF860B9603B601346FB80FB88EA
:101CB400A3F580739B08012202FA03F31A46BB685A
:101CC4001340002B1DD0FB881946F868FFF794FDDC
:101CD4000346002B15D0FB881946F868FFF777FDFB
:101CE4003B68002B0BD03B681B68FA88A2F5807216
:101CF4009208012101FA02F21A433B681A60012397
:101D040000E0002318461037BD4680BD80B586B07C
:101D140000AFF860B9607A6000233B61FFF735FDDE
:101D240007F110034FF48072B968F868FFF7B7FF42
:101D340007F110034FF48272B968F868FFF7AFFF38
:101D440007F110034FF48472B968F868FFF7A7FF2E
:101D540007F110034FF48872B968F868FFF79FFF22
:101D640007F110034FF48E72B968F868FFF797FF14
:101D740007F110034FF49072B968F868FFF78FFF0A
:101D840007F110034FF49272B968F868FFF787FF00
:101D940007F110034FF4A272B968F868FFF77FFFE8
:101DA40007F110034FF4A672B968F868FFF777FFDC
:101DB40007F110034FF4A872B968F868FFF76FFFD2
:101DC40007F110034FF4AC72B968F868FFF767FFC6
:101DD400BB6803F01003002B0AD1BB6803F4003383
:101DE400002B05D0F868FFF7D1FD7861FFF7D4FC2C
:101DF400FFF7C4FC3B6918461837BD4680BD000098
:101E040080B584B000AF78600023FB60786800F090
:101E14009CF80346002B02D0012B03D004E0054BB1
:101E2400FB6001E0044BFB60FB6818461037BD46BD
:101E340080BD00BF002584500028845080B586B042
:101E440000AF7860084611461A460346FB700B46FD
:101E5400BB7013467B703B1D1846FFF7D1FF7861BA
:101E64007A687B69803253F822303B61114BFB6006
:101E7400FB68DB433A6913403B61FA78BB785B004B
:101E84001A437B789B001A4397F820301B021A43AD
:101E940097F824301B0413433A6913433B617A686F
:101EA4007B698032396943F8221000BF1837BD4678
:101EB40080BD00BF0F0F030080B584B002AF78600F
:101EC4000023019300230093002301220121786859
:101ED400FFF7B4FF00BF0837BD4680BD80B584B0AE
:101EE40002AF78600B46FB70FB780022019200225F
:101EF4000092002200217868FFF7A0FF00BF083796
:101F0400BD4680BD80B584B000AF78603B1D1846E7
:101F1400FFF776FFF8607B68012202FA03F31946A3
:101F2400F86800F004F800BF1037BD4680BD80B4E7
:101F340083B000AF786039607B683A689A6000BF0C
:101F44000C37BD465DF8047B704780B485B000AFA4
:101F540078607B681B68FB60FB6803F01F027B688A
:101F64001A60FB685B0918461437BD465DF8047BAC
:101F7400704780B582B000AF78607868FFF79CFF47
:101F8400FFF7FCFB00BF0837BD4680BD80B582B0BB
:101F940000AF78600B46FB70FB7819467868FFF752
:101FA4009DFFFFF7EBFB00BF0837BD4680BD80B542
:101FB40082B000AF78607868FFF7A4FFFFF7DEFB1C
:101FC40000BF0837BD4680BD80B58AB000AF7860D9
:101FD40039603B6893F8203083F00103DBB2002BB7
:101FE40019D03B681B68B3F1FF3F09D03B681B68FD
:101FF4001846FFF7DCFF3B681B681846FFF7B9FF7C
:102004003B685B68B3F1FF3F05D03B685B68002128
:102014001846FFF7BBFF3B689B7E012B21D13B6831
:1020240093F8203083F00103DBB2002B19D03B6816
:10203400DB68B3F1FF3F05D03B68DB68002118463D
:10204400FFF7A4FF3B689B68B3F1FF3F09D03B68EF
:102054009B681846FFF7ABFF3B689B681846FFF781
:1020640088FF07F10C0300221A605A609A60DA6054
:102074001A615A619A613B681B68FB603B685B6844
:102084003B613B689B687B613B68DB68BB613B6889
:102094005B69FB613B6893F8213087F826303A6826
:1020A40007F120031A321068186092889A807B68BE
:1020B4001B6807F10C0211461846FFF774FC786898
:1020C40000F01EF87B681B7919460B4A0B46DB00AF
:1020D4000B449B00134404331B68002B07D07B681C
:1020E40018683B681A7E01230449FFF795FC00BF7A
:1020F4002837BD4680BD00BF800000201003420089
:1021040080B586B000AF78607B681B6803F26453C7
:10211400FB607B681B6803F5AD63BB60BB681B6831
:10212400012B05D17B681B680C211846FFF776FD4F
:10213400FB681B68012B26D17B681B681846FFF7D8
:1021440053FD7B681B6804211846FFF767FD0023D5
:10215400FB7549F640433B61FB681B68002B02D1C9
:102164000123FB7505E03B69013B3B613B69002BA7
:10217400F2D17B681B681846FFF725FD7B681B6856
:102184001846FFF73EFD00BF1837BD4680BD00006E
:1021940080B586B000AFF860B9607A60FB681B79DF
:1021A4001A461346DB0013449B00234A13447B6105
:1021B400224B3B617B6993F82030002B03D0204BEA
:1021C4003B613B6934E07B697A685A60BB68002BE9
:1021D4001BD0BB681A697B691A60BB6893F820102E
:1021E4007A6992F8223061F3000382F82230BB68E6
:1021F40093F821107A6992F8223061F3410382F84E
:102204002230B968F868FFF7DFFEFB681B681846E0
:10221400FFF7EAFC7B6900229A617B690022DA619C
:102224007B6900225A617B69012283F820203B6983
:1022340018461837BD4680BD800000200000AD0B55
:102244000500AD0B80B588B000AFF860B9607A6066
:102254003B60FB681B791A461346DB0013449B0062
:10226400314A1344BB61314BFB61FB681B68B9689D
:102274001846FFF798FA034683F00103DBB2002BFC
:1022840003D02B4BFB61FB694AE0F86800F056F879
:102294000346002B03D0274BFB61FB6940E0BB697D
:1022A4007A685A61BB69BA689A60FB681B684FF424
:1022B40090711846FFF776FCFB681B684FF4AC710D
:1022C4001846FFF76FFCFB681868BB699968BB691F
:1022D4005B691A46FFF7B3FCFB681A68BB695B6865
:1022E400002B0CBF01230023DBB219461046FFF775
:1022F40033FC7861BB695B68002B10D17B6903F404
:102304008003002B02D00C4BFB6105E0FB681B68CB
:1023140000211846FFF7EFFBBB6900225A61FB69F5
:1023240018462037BD4680BD800000200000AD0B5C
:102334000A00AD0B0B00AD0B0800AD0B80B483B0ED
:1023440000AF78607B681B791946094A0B46DB00AD
:102354000B449B00134414331B68002B14BF01234C
:102364000023DBB218460C37BD465DF8047B70478A
:102374008000002080B483B000AF7860044A7B689A
:10238400136000BF0C37BD465DF8047B704700BF87
:1023940010E000E080B483B000AF7860044A7B684A
:1023A400536000BF0C37BD465DF8047B704700BF27
:1023B40010E000E080B500AF6FF07F40FFF7EAFF68
:1023C4000520FFF7D7FF00BF80BD00001FB51446EE
:1023D4001A46094B05461B68D8684CB1074B009157
:1023E4000749CDE901342B4600F0B8F900F0EAFAC8
:1023F400044B1C46F3E700BF0C0000203C06000021
:10240400490600007706000008B5064B044613B1E0
:102414000021AFF30080044B1B6803B198472046AA
:1024240001F0D4F900000000E4010020024B014651
:10243400186800F02DB800BF0C000020024B0146C4
:10244400186800F0C7BA00BF0C00002070B50F4E2A
:102454000C460546316811B900F05EFA3060214639
:10246400284600F059FA431C03D14FF0FF342046AC
:1024740070BDC41C24F00304A042F8D0211A2846DD
:1024840000F04AFA0130F2D1EFE700BFA4000020C7
:102494002DE9F843CD1C064625F0030508350C2D1F
:1024A40038BF0C25002D01DBA94204D90C2333606D
:1024B4000020BDE8F883DFF8D48000F069F8D8F88C
:1024C40000301C4644BB29463046FFF7BFFF431C7F
:1024D400044658D1D8F800402746002F43D1002C99
:1024E4004BD023683946304604EB030900F014FA54
:1024F400814542D1216830466D1A2946FFF7A6FF6F
:1025040001303AD023682B442360D8F800305A684D
:1025140062BBC8F800700FE02268521B20D40B2A5B
:1025240017D96119A342256018BF5960636808BFB1
:10253400C8F8001062514B60304600F02FF804F1E7
:102544000B00231D20F00700C21A1CBF1B1AA35046
:10255400AFE76268A3420CBFC8F800205A60EBE7FB
:1025640023466468AEE73C467F68B6E71A465B6874
:10257400A342FBD100235360DEE70C2330463360D3
:1025840000F00CF894E70560D6E700BFA80000202F
:10259400014800F008BA00BFEC010020014800F037
:1025A40003BA00BFEC010020024B0A46014618683A
:1025B40000F002B80C0000202DE9F0410746144653
:1025C4000D4621B91146BDE8F041FFF761BF2AB9B4
:1025D400254600F0FFF92846BDE8F08100F044FAF2
:1025E4008442064602D8B4EB500FF4D8214638464C
:1025F400FFF74EFF804608B94546ECE7B442224651
:10260400294628BF324600F0D0F92946384600F062
:10261400E1F9F1E7002310B504468360818119468E
:102624004366C28108228361C0E90033C0E90433F0
:102634005C3000F026F90D4B246263620C4BA362FC
:102644000C4BE3620C4B23630C4B9C4206D003F10E
:102654006802944202D0D0339C4205D104F1580060
:10266400BDE8104000F09EB910BD00BF0128000075
:10267400232800005B2800007F280000AC00002015
:10268400024A0349034800F07BB800BF0000002061
:10269400D93300001000002041680C4B994210B55A
:1026A400044601D000F096FEA168094B994202D07D
:1026B400204600F08FFEE168064B994204D0204684
:1026C400BDE8104000F086BE10BD00BFAC00002085
:1026D400140100207C01002010B50B4B04210B4C8D
:1026E4000B4A20461A600022FFF794FF04F16800A9
:1026F40001220921FFF78EFF04F1D00002221221EA
:10270400BDE81040FFF786BFE4010020AC000020C4
:1027140085260000014800F046B900BFED01002005
:10272400014800F041B900BFED01002010B5044696
:10273400FFF7F0FF236A1BB1BDE81040FFF7F0BFBD
:10274400044B2362044B1B68002BF5D1FFF7C4FF35
:10275400F2E700BF9D260000E40100200EB403B59B
:1027640003AB0146054853F8042B0068019300F0BD
:1027740005FB02B05DF804EB03B070470C000020C9
:102784002DE9F8430746884614460026D4E9019506
:10279400B9F1010905D52468002CF7D13046BDE80C
:1027A400F883AB89012B07D9B5F90E30013303D077
:1027B40029463846C04706436835E9E70EB400B5F4
:1027C4009CB06FF000411DAB0290069007910491FC
:1027D4000848094953F8042B059102A9006801939C
:1027E40000F0A6F9029B00221A701CB05DF804EBFD
:1027F40003B070470C0000200802FFFF10B50C4620
:10280400B1F90E1000F076F80028ABBF636DA38910
:102814001B1823F48053ACBF6365A38110BD2DE95D
:10282400F0411F468B8905460C46DB05164605D547
:1028340002230022B1F90E1000F04AF8A3893246AF
:10284400B4F90E10284623F48053A3813B46BDE817
:10285400F04100F071B810B50C46B1F90E1000F05B
:1028640037F8431CA38915BF606523F4805343F4F0
:102874008053A38118BFA38110BDB1F90E1000F0DD
:1028840017B802440346934200D1704703F8011B72
:10289400F9E7024610B5147813460132002CFAD138
:1028A400013B11F8012B03F8012F002AF9D110BDC7
:1028B40038B50023054D044608462B6000F036FF6A
:1028C400431C02D12B6803B1236038BDE80100200A
:1028D40038B50446064D0846114600222A601A46B9
:1028E40000F04CFF431C02D12B6803B1236038BDB8
:1028F400E801002038B50446064D0846114600227A
:102904002A601A4600F042FF431C02D12B6803B12F
:10291400236038BDE801002038B50023054D044686
:1029240008462B6000F03AFF431C02D12B6803B128
:10293400236038BDE801002038B50446064D08463A
:10294400114600222A601A4600F038FF431C02D1C7
:102954002B6803B1236038BDE801002070B50D4D2C
:1029640000260D4C641BA410A64209D10B4D002671
:102974000B4C01F02DFC641BA410A64205D170BDC4
:1029840055F8043B01369847EEE755F8043B013609
:102994009847F2E7E0410000E0410000E041000018
:1029A400E44100007047704770470A44431E914257
:1029B40000D1704710B511F8014B914203F8014F53
:1029C400F9D110BD062008B500F002FE012000F088
:1029D400FDFE000038B50546002941D051F8043CFD
:1029E4000C1F002BB8BFE418FFF7D2FD1D4A136873
:1029F40033B9636014602846BDE83840FFF7CEBDA4
:102A0400A34208D9206821188B4201BF19685B686A
:102A140009182160EDE71A465B680BB1A342FAD9A5
:102A240011685018A0420BD120680144501811605D
:102A34008342E0D118685B68084453601060DAE7A9
:102A440002D90C232B60D6E7206821188B4202BFE1
:102A540019685B680918636008BF21605460CAE79D
:102A640038BD00BFA800002051F8043C181F002BFB
:102A7400BCBF0B58C01870472DE9F0471F468E683D
:102A840082460C46BE4290460B682DD8B1F90C2004
:102A940012F4906F26D06569096905EB4505A3EB2F
:102AA40001097B1C05EBD5754B446D109D4238BF65
:102AB4001D46530527D52946FFF7EAFC064660B3B1
:102AC4004A462169FFF771FFA38923F4906343F019
:102AD4008003A38126614E446561A5EB0905266048
:102AE4003E46A560BE4200D93E4632464146206875
:102AF40000F02CFDA36800209B1BA36023683344D3
:102B04002360BDE8F0872A46FFF756FD06460028F5
:102B1400E0D121695046FFF75DFF0C234FF0FF30F1
:102B2400CAF80030A38943F04003A381E9E7000019
:102B34002DE9F04F98468B899DB007461B060D463C
:102B4400144610D50B6973B94021FFF7A1FC286026
:102B5400286130B90C233B604FF0FF301DB0BDE855
:102B6400F08F40236B610023CDF80C804FF00109F6
:102B7400DFF8A081099320238DF8293030238DF8C4
:102B84002A3023469A4613F8012B0AB1252AF9D193
:102B9400BAEB040B0BD05B46224629463846FFF7B6
:102BA4006BFF013000F0A780099A5A4409929AF801
:102BB4000030002B00F09F8000234FF0FF320AF119
:102BC400010A049307938DF853301A93CDE9052332
:102BD400544605224F4814F8011B00F015FD049AD1
:102BE400D8B9D00644BF20238DF85330110744BF11
:102BF4002B238DF853309AF800302A2B15D0079ADE
:102C0400544600204FF00A0C214611F8013B303B9A
:102C1400092B4BD9B0B1079214E0A0EB0803A246EC
:102C240009FA03F313430493D2E7039B191D1B68AA
:102C3400002B0391BBBF5B4242F002020793079350
:102C4400B8BF049223782E2B0AD163782A2B32D171
:102C5400039B02341A1D1B6843EAE3730392059332
:102C6400DFF8C0A003222178504600F0CDFC38B133
:102C7400A0EB0A004022049B0134824013430493D6
:102C840014F8011B062224488DF8281000F0BCFC1F
:102C9400002836D0214B1BBB039B073323F00703CB
:102CA40008330393099B334409936AE70CFB02320C
:102CB4000C460120A8E7002301344FF00A0C194602
:102CC4000593204610F8012B303A092A03D9002B2A
:102CD400C6D00591C4E70CFB012104460123F0E7AB
:102CE40003AB2A4604A9384600930D4BAFF300808A
:102CF400421C0646D6D1AB895B063FF52DAF099839
:102D04002CE703AB2A4604A938460093044B00F091
:102D1400BFF9EDE77806000082060000000000001D
:102D24007D2A00007E0600009368013B002B93601F
:102D340010B408DA9469A34201DB0A2903D15DF8CF
:102D4400044B00F06FBB1368581C106008461970E0
:102D54005DF8044B7047F8B506460F461446D5187F
:102D6400AC4201D1002007E03A4614F8011B30467A
:102D7400FFF7DAFF431CF3D1F8BD00002DE9F04F53
:102D84000D469DB014469846064618B1036A0BB921
:102D9400FFF7CCFC6B6ED90705D4AB899A0502D436
:102DA400A86DFFF700FEAB891B0701D52B699BB902
:102DB4002946304600F074FB70B16B6EDC0704D515
:102DC4004FF0FF301DB0BDE8F08FAB899805F7D404
:102DD400A86DFFF7E9FDF3E70023CDF80C804FF071
:102DE4000109DFF8B481099320238DF829303023B9
:102DF4008DF82A3023469A4613F8012B0AB1252A66
:102E0400F9D1BAEB040B0BD05B4622462946304677
:102E1400FFF7A1FF013000F0A780099A5A440992F4
:102E24009AF80030002B00F09F8000234FF0FF320F
:102E34000AF1010A049307938DF853301A93CDE9EC
:102E4400052354460522544814F8011B00F0DCFB0A
:102E5400049AD8B9D10644BF20238DF85330130700
:102E640044BF2B238DF853309AF800302A2B15D009
:102E7400079A544600204FF00A0C214611F8013BF2
:102E8400303B092B4BD9B0B1079214E0A0EB0803F7
:102E9400A24609FA03F313430493D2E7039B191DD3
:102EA4001B68002B0391BBBF5B4242F002020793F5
:102EB4000793B8BF049223782E2B0AD163782A2B68
:102EC40032D1039B02341A1D1B6843EAE373039255
:102ED4000593DFF8D4A003222178504600F094FB38
:102EE40038B1A0EB0A004022049B01348240134312
:102EF400049314F8011B062228488DF8281000F0CA
:102F040083FB00283FD0264B1BBB039B073323F0D6
:102F1400070308330393099B3B4409936AE70CFBBB
:102F240002320C460120A8E7002301344FF00A0CBA
:102F340019460593204610F8012B303A092A03D983
:102F4400002BC6D00591C4E70CFB012104460123E4
:102F5400F0E703AB2A4604A930460093114BAFF3C4
:102F640000800746781CD6D16B6ED90705D4AB898F
:102F74009A0502D4A86DFFF717FDAB895B063FF5F0
:102F84001FAF09981EE703AB2A4604A930460093F5
:102F9400044B00F07DF8E4E77806000082060000A8
:102FA400000000005B2D00007E0600002DE9F047C4
:102FB400164698468A6807460B690C46DDF8209049
:102FC4009342B8BF1346336091F843200AB10133EA
:102FD40033602368990642BF33680233336025683F
:102FE40015F0060506D104F1190AE36832689B1A44
:102FF400AB422BDC94F843302268003B18BF01231A
:10300400920630D404F1430241463846C8470130A1
:1030140023D023681A3454F80A2C03F00603042B33
:103024000ABF54F80E5C002533684FF0000608BF51
:10303400ED1A54F8123C08BF25EAE5759342C4BF63
:103044009B1AED18B5421AD1002008E0012352461C
:1030540041463846C847013003D14FF0FF30BDE840
:10306400F0870135C1E7E1185A1C302002332244AD
:1030740081F8430094F8451082F84310C2E7012315
:10308400224641463846C8470130E6D00136D9E7E2
:103094002DE9FF470F7E914680460C46782F9A46CD
:1030A4000C9E01F1430207D8622F0AD8002F00F0CA
:1030B400D180582F00F0B88004F1420684F84270A1
:1030C4003AE0A7F16303152BF6D801A151F823F0D8
:1030D4002D31000041310000BD300000BD30000042
:1030E400BD300000BD30000041310000BD300000A3
:1030F400BD300000BD300000BD3000003F32000094
:103104006B310000F9310000BD300000BD3000001B
:1031140061320000BD3000006B310000BD300000A2
:10312400BD3000000132000033681A1D1B68326094
:1031340004F1420684F8423001239CE0336820689D
:10314400191D3160060601D51D6803E04506FBD54F
:10315400B3F90050002D03DA2D236D4284F8433077
:1031640058480A2311E021683368080653F8045BC1
:1031740002D4490648BFADB26F2F3360514814BF23
:103184000A230823002184F843106668002EA660F1
:1031940005DB21682E4321F0040121604BD0164643
:1031A400B5FBF3F103FB1157C75D06F8017D2F460C
:1031B4000D46BB42F4D9082B0BD12368DF0708D591
:1031C400236961689942DEBF302306F8013C06F1A9
:1031D400FF36921B22614B4603AA21464046CDF896
:1031E40000A0FFF7E3FE01304AD14FF0FF3004B0F6
:1031F400BDE8F087236843F0200323607827324832
:10320400236884F845701F06316851F8045B02D4C2
:103214005F0648BFADB23160D90744BF43F0200315
:1032240023601DB11023ADE72648E9E7236823F0A6
:1032340020032360F6E71646BDE733682568181DAA
:10324400616930602E061B6801D5196002E06806CA
:10325400FBD51980002316462361BCE7336800219F
:103264001A1D32601E686268304600F0CDF908B15C
:10327400801B606063682361002384F84330AAE7FD
:103284002369324649464046D0470130ADD02368D1
:103294009B0713D4E068039B9842B8BF1846A6E77F
:1032A4000123324649464046D04701309DD001357E
:1032B400E36803995B1AAB42F2DCEBE7002504F107
:1032C4001906F5E7890600009A060000B1F90C20FA
:1032D4002DE9F041160705460C4654D44B68002BE3
:1032E40002DC0B6C002B48DDE66A002E45D000237F
:1032F40012F480522F68216A2B6030D0626DA3894A
:10330400590705D56368D21A636B0BB1236CD21AC3
:103314000023E66A216A2846B047431CA38906D1E4
:1033240029681D292BD82A4ACA40D60727D5002246
:10333400D90462602269226004D5421C01D12B6841
:1033440003B96065616B2F60B9B104F1440399421C
:1033540002D02846FFF73EFB002363630DE0012300
:103364002846B0470246501CC9D12B68002BC6D052
:103374001D2B01D0162B1DD12F60002021E043F01E
:1033840040031BB21AE00F69002FF6D093070E68B2
:103394000F600CBF4B690023A6EB07088B60B8F1E4
:1033A400000FEADD43463A46216A2846A66AB0473A
:1033B400002808DCB4F90C3043F040034FF0FF3030
:1033C400A381BDE8F0810744A8EB0008E7E700BF4C
:1033D4000100402038B50B6905460C4613B9002599
:1033E400284638BD18B1036A0BB9FFF79FF9B4F941
:1033F4000C30002BF3D0626ED00704D4990502D4AC
:10340400A06DFFF7D0FA28462146FFF75FFF636EF1
:103414000546DA07E4D4A3899B05E1D4A06DFFF740
:10342400C3FADDE7F8B50E461446054618B1036A3B
:103434000BB9FFF77BF9A369A360A3891A0701D528
:10344400236943B92146284600F02AF818B14FF001
:10345400FF373846F8BD2368F6B222693746981A12
:103464006369834205DC21462846FFF7B3FF002841
:10347400EDD1A368013BA36023685A1C22601E702F
:10348400431C62699A4204D0A389DB07E1D50A2E62
:10349400DFD121462846FFF79DFF0028D9D0D6E783
:1034A40038B5294B05460C46186818B1036A0BB9A0
:1034B400FFF73CF9B4F90C30190722D4DA0607D423
:1034C40009222A6043F040034FF0FF30A38133E028
:1034D400580712D5616B41B104F14403994202D0FB
:1034E4002846FFF777FA00236363A38923F02403B4
:1034F400A3810023636023692360A38943F0080345
:10350400A38123694BB9A38903F42073B3F5007F26
:1035140003D02146284600F0AAF8B4F90C3013F081
:1035240001020AD00022A26062695242A2612269A9
:1035340042B913F08000C5D138BD990758BF6269FC
:10354400A260F4E70020F7E70C000020884210B5E1
:1035540001EB020402D98442234607D8431EA14248
:1035640008D011F8012B03F8012FF8E702440146B3
:103574008A4200D110BD13F8014D02F8014DF7E75E
:103584001F2938B505460C4604D9162303604FF0AD
:10359400FF3038BDC26B12B152F821304BB9284606
:1035A40000F030F8224601462846BDE8384000F0D5
:1035B40017B8012B0AD0591C03D11623036001202C
:1035C400E7E70021204642F8241098470020E0E76E
:1035D400024B01461868FFF7D3BF00BF0C00002060
:1035E40038B50023064D0446084611462B6000F00A
:1035F400BDF8431C02D12B6803B1236038BD00BF62
:10360400E801002000F0A2B8C9B20346024410B594
:103614009342184601D1002003E0047801338C4220
:10362400F6D110BD70B50C46B1F90E1096B0154622
:1036340000291E460CDAA389002113F0800F14BF61
:1036440040234FF48063002031602B6016B070BDBE
:103654006A4600F049F80028EDDB019901F4704155
:10366400A1F50053594259414FF48063EBE78B892C
:10367400F7B59D0706460C4607D504F147032360BA
:1036840023610123636103B0F0BD01AB6A46FFF718
:10369400C9FF009F054630463946FEF7F9FE48B992
:1036A400B4F90C309A05EED423F0030343F002037B
:1036B400A381E2E7A389206043F08003A381019BF7
:1036C400C4E904075BB1B4F90E10304600F01EF8EB
:1036D40028B1A38923F0030343F00103A381A38941
:1036E4001D43A581CFE7000038B50023064D0446ED
:1036F400084611462B6000F021F8431C02D12B68C8
:1037040003B1236038BD00BFE801002038B50023B1
:10371400054D044608462B6000F020F8431C02D1F6
:103724002B6803B1236038BDE8010020024B582206
:103734004FF0FF301A607047E8010020024B582216
:103744004FF0FF301A607047E8010020024B582206
:103754004FF0FF301A607047E8010020024B5822F6
:1037640000201A60704700BFE8010020024B582275
:103774004FF0FF301A607047E8010020024B5822D6
:103784004FF0FF301A607047E8010020024B5822C6
:103794004FF0FF301A607047E8010020054A0346E5
:1037A400106810B103441360704703480344136066
:1037B400704700BFF0010020F4010020024B5822A2
:1037C4004FF0FF301A607047E8010020FEE700BFA9
:1037D4000000000051EC100BC1F30A532DE9F04135
:1037E400A3F2FF350C460646132D34DC002D20DBF6
:1037F400364B0F4643FA05F801EA080303432FD07A
:1038040030A3D3E9002300F06BF80022002300F07A
:10381400ADFC40B1002C03DD4FF480132B411F4459
:1038240027EA080400262346324643EC102BBDE861
:10383400F08124A3D3E9002300F052F800220023EE
:1038440000F094FC0028EED0002C36DB3443E9D0A1
:1038540000261F4CE7E7332D06DDB5F5806F25D034
:1038640041EC100BBDE8F081A3F213434FF0FF3796
:10387400DF403842F4D013A3D3E9002300F030F83A
:103884000022002300F072FC0028CCD0002C334628
:1038940009DD142D06D0C5F134050122AA401344D4
:1038A4009E4200D9013423EA0706BCE702460B46D0
:1038B40000F016F841EC100BD4E700264FF000445A
:1038C400B1E700BF9C7500883CE4377EFFFF0F0022
:1038D4000000F03F81F0004102E000BF83F00043AC
:1038E40030B54FEA41044FEA430594EA050F08BF97
:1038F40090EA020F1FBF54EA000C55EA020C7FEA5B
:10390400645C7FEA655C00F0E2804FEA5454D4EBD7
:103914005555B8BF6D420CDD2C4480EA020281EAA1
:10392400030382EA000083EA010180EA020281EAD9
:103934000303362D88BF30BD11F0004F4FEA01312B
:103944004FF4801C4CEA113102D0404261EB41013A
:1039540013F0004F4FEA03334CEA133302D05242C0
:1039640063EB430394EA050F00F0A780A4F101047C
:10397400D5F1200E0DDB02FA0EFC22FA05F28018B6
:1039840041F1000103FA0EF2801843FA05F359419C
:103994000EE0A5F120050EF1200E012A03FA0EFC1B
:1039A40028BF4CF0020C43FA05F3C01851EBE37145
:1039B40001F0004507D54FF0000EDCF1000C7EEB62
:1039C40000006EEB0101B1F5801F1BD3B1F5001FA0
:1039D4000CD349085FEA30004FEA3C0C04F10104BF
:1039E4004FEA445212F5800F80F09A80BCF1004FE8
:1039F40008BF5FEA500C50F1000041EB045141EA6A
:103A0400050130BD5FEA4C0C404141EB0101013C32
:103A140028BFB1F5801FE9D291F0000F04BF014621
:103A24000020B1FA81F308BF2033A3F10B03B3F1F3
:103A340020020CDA0C3208DD02F1140CC2F10C0283
:103A440001FA0CF021FA02F10CE002F11402D8BFE1
:103A5400C2F1200C01FA02F120FA0CFCDCBF41EAAD
:103A64000C019040E41AA2BF01EB0451294330BD7C
:103A74006FEA04041F3C1CDA0C340EDC04F1140459
:103A8400C4F1200220FA04F001FA02F340EA030030
:103A940021FA04F345EA030130BDC4F10C04C4F176
:103AA400200220FA02F001FA04F340EA0300294656
:103AB40030BD21FA04F0294630BD94F0000F83F4A0
:103AC400801306BF81F480110134013D4EE77FEA83
:103AD400645C18BF7FEA655C29D094EA050F08BFCF
:103AE40090EA020F05D054EA000C04BF19461046B0
:103AF40030BD91EA030F1EBF0021002030BD5FEAF4
:103B0400545C05D14000494128BF41F0004130BD1B
:103B140014F580043CBF01F5801130BD01F000456F
:103B240045F0FE4141F470014FF0000030BD7FEAE2
:103B3400645C1ABF194610467FEA655C1CBF0B46DD
:103B4400024650EA013406BF52EA033591EA030FF4
:103B540041F4002130BD00BF90F0000F04BF0021EC
:103B6400704730B54FF4806404F132044FF000051F
:103B74004FF0000150E700BF90F0000F04BF002198
:103B8400704730B54FF4806404F1320410F00045FE
:103B940048BF40424FF000013EE700BF42004FEAF9
:103BA400E2014FEA31014FEA02701FBF12F07F4376
:103BB40093F07F4F81F06051704732F07F4208BF2D
:103BC400704793F07F4F04BF41F40021704730B534
:103BD4004FF4607401F0004521F000411CE700BF80
:103BE40050EA010208BF704730B54FF000050AE003
:103BF40050EA010208BF704730B511F0004502D504
:103C0400404261EB41014FF4806404F132045FEA05
:103C1400915C3FF4D8AE4FF003025FEADC0C18BFAE
:103C240003325FEADC0C18BF033202EBDC02C2F1A0
:103C3400200300FA03FC20FA02F001FA03FE40EA32
:103C44000E0021FA02F11444BDE600BF70B54FF036
:103C5400FF0C4CF4E06C1CEA11541DBF1CEA135514
:103C640094EA0C0F95EA0C0F00F0DEF82C4481EA7C
:103C7400030621EA4C5123EA4C5350EA013518BF9C
:103C840052EA033541F4801143F4801338D0A0FB89
:103C940002CE4FF00005E1FB02E506F00042E0FB36
:103CA40003E54FF00006E1FB03569CF0000F18BF3C
:103CB4004EF0010EA4F1FF04B6F5007F64F54074E4
:103CC40004D25FEA4E0E6D4146EB060642EAC62177
:103CD40041EA55514FEAC52040EA5E504FEACE2EE4
:103CE400B4F1FD0C88BFBCF5E06F1ED8BEF1004FE7
:103CF40008BF5FEA500E50F1000041EB045170BD63
:103D040006F0004646EA010140EA020081EA0301A6
:103D1400B4EB5C04C2BFD4EB0C0541EA045170BDA2
:103D240041F480114FF0000E013C00F3AB8014F11C
:103D3400360FDEBF002001F0004170BDC4F1000465
:103D4400203C35DA0C341BDC04F11404C4F12005E6
:103D540000FA05F320FA04F001FA05F240EA020041
:103D640001F0004221F0004110EBD37021FA04F677
:103D740042EB06015EEA430E08BF20EAD37070BD31
:103D8400C4F10C04C4F1200500FA04F320FA05F090
:103D940001FA04F240EA020001F0004110EBD37092
:103DA40041F100015EEA430E08BF20EAD37070BD02
:103DB400C4F1200500FA05F24EEA020E20FA04F3DB
:103DC40001FA05F243EA020321FA04F001F000418A
:103DD40021FA04F220EA020000EBD3705EEA430EFB
:103DE40008BF20EAD37070BD94F0000F0FD101F02A
:103DF4000046400041EB010111F4801F08BF013C63
:103E0400F7D041EA060195F0000F18BF704703F0A0
:103E14000046520043EB030313F4801F08BF013D27
:103E2400F7D043EA0603704794EA0C0F0CEA1355E3
:103E340018BF95EA0C0F0CD050EA410618BF52EA9D
:103E44004306D1D181EA030101F000414FF00000A3
:103E540070BD50EA410606BF1046194652EA4306B1
:103E640019D094EA0C0F02D150EA013613D195EA25
:103E74000C0F05D152EA03361CBF104619460AD16D
:103E840081EA030101F0004141F0FE4141F4700177
:103E94004FF0000070BD41F0FE4141F4780170BD67
:103EA40070B54FF0FF0C4CF4E06C1CEA11541DBFCC
:103EB4001CEA135594EA0C0F95EA0C0F00F0A7F8CE
:103EC400A4EB050481EA030E52EA03354FEA0131FB
:103ED40000F088804FEA03334FF0805545EA13130E
:103EE40043EA12634FEA022245EA111545EA1065D6
:103EF4004FEA00260EF000419D4208BF964244F16D
:103F0400FD0404F5407402D25B084FEA3202B61A8B
:103F140065EB03055B084FEA32024FF480104FF45F
:103F2400002CB6EB020E75EB030E22BFB61A7546D3
:103F340040EA0C005B084FEA3202B6EB020E75EB66
:103F4400030E22BFB61A754640EA5C005B084FEACE
:103F54003202B6EB020E75EB030E22BFB61A75469B
:103F640040EA9C005B084FEA3202B6EB020E75EBA6
:103F7400030E22BFB61A754640EADC0055EA060E67
:103F840018D04FEA051545EA16754FEA06164FEAAA
:103F9400C30343EA52734FEAC2025FEA1C1CC0D156
:103FA40011F4801F0BD141EA00014FF000004FF0E3
:103FB400004CB6E711F4801F04BF01430020B4F1A4
:103FC400FD0C88BFBCF5E06F3FF6AFAEB5EB030C5C
:103FD40004BFB6EB020C5FEA500C50F1000041EB59
:103FE400045170BD0EF0004E4EEA113114EB5C0426
:103FF400C2BFD4EB0C0541EA045170BD41F48011F9
:104004004FF0000E013C90E645EA060E8DE60CEA00
:10401400135594EA0C0F08BF95EA0C0F3FF43BAF1D
:1040240094EA0C0F0AD150EA01347FF434AF95EAD4
:104034000C0F7FF425AF104619462CE795EA0C0FB8
:1040440006D152EA03353FF4FDAE1046194622E785
:1040540050EA410618BF52EA43067FF4C5AE50EA5F
:1040640041047FF40DAF52EA43057FF4EBAE12E74F
:104074004FF0FF3C06E000BF4FF0010C02E000BF30
:104084004FF0010C4DF804CD4FEA410C7FEA6C5C13
:104094004FEA430C18BF7FEA6C5C1BD001B050EAB6
:1040A400410C0CBF52EA430C91EA030F02BF90EAA1
:1040B400020F0020704710F1000F91EA030F58BF60
:1040C400994208BF90422CBFD8176FEAE37040F0C2
:1040D400010070474FEA410C7FEA6C5C02D150EA60
:1040E400013C07D14FEA430C7FEA6C5CD6D152EA1B
:1040F400033CD3D05DF8040B704700BF84461046E0
:1041040062468C461946634600E000BF01B5FFF7DE
:10411400B7FF002848BF10F1000F01BD4DF808EDAE
:10412400FFF7F4FF0CBF012000205DF808FB00BF7F
:104134004DF808EDFFF7EAFF34BF012000205DF8D9
:1041440008FB00BF4DF808EDFFF7E0FF94BF012026
:1041540000205DF808FB00BF4DF808EDFFF7CEFF27
:1041640094BF012000205DF808FB00BF4DF808ED66
:10417400FFF7C4FF34BF012000205DF808FB00BF37
:104184004FEA410212F5001215D211D56FF478737B
:10419400B3EB625212D94FEAC12343F0004343EA1E
:1041A400505311F0004F23FA02F018BF40427047F9
:1041B4004FF00000704750EA013005D111F0004083
:1041C40008BF6FF0004070474FF00000704700BF19
:1041D400F8B500BFF8BC08BC9E4670472107000034
:1041E400F8B500BFF8BC08BC9E467047F90600004D
:0441F40000000000C7
:1041F8004042000000000020170000009C42000020
:104208005C000020000000009C4200005C000020D0
:10421800000000009C4200005C000020000000003C
:104228005C00002066000000F4010020000000008F
:08423800F40100200000000069
:104240000000000003000000AC000020100000206F
:1042500000000000AC000020140100207C010020C0
:10426000000000000000000000000000000000004E
:10427000000000000000000000000000000000003E
:10428000000000000000000000000000000000002E
:0C42900000000000000000000000000022
:04000003000007C131
:00000001FF
