:10000000000004202505000095050000970500006C
:10001000990500009B0500009D0500009F0500005C
:10002000000000000000000000000000A10500002A
:10003000A305000000000000A5050000A7050000C2
:10004000A9050000A905000000000000A9050000A6
:1000500000000000A90500000000000000000000F2
:10006000A9050000A9050000A9050000A9050000D8
:10007000A9050000A9050000A9050000A9050000C8
:10008000A9050000A9050000000000000000000014
:10009000A9050000A9050000000000000000000004
:1000A000A9050000A9050000A9050000A905000098
:1000B000A9050000A9050000A9050000A905000088
:1000C000A9050000A9050000A9050000A905000078
:1000D000A905000000000000A905000000000000C4
:1000E000A905000000000000A9050000A905000006
:1000F00000000000A905000000000000A9050000A4
:10010000000000000000000000000000A905000041
:10011000A905000000000000A9050000A9050000D5
:1001200000000000A9050000000000000000000021
:1001300000000000000000000000000000000000BF
:1001400000000000000000000000000000000000AF
:10015000A9050000000000000000000000000000F1
:10016000000000000000000000000000000000008F
:10017000000000000000000000000000000000007F
:10018000000000000000000000000000000000006F
:10019000000000000000000000000000000000005F
:0F0400007570000072696768740000001B63006C
:0804100098000000010000004B
:100418000348044B834202D0034B03B1184770478B
:100428000C0000200C00002000000000064B0749CB
:10043800C91A891048BF0131491003D0044B0BB1C8
:1004480001481847704700BF0C0000200C0000202E
:100458000000000010B5064C237843B9FFF7D8FF19
:10046800044B13B10448AFF300800123237010BD7F
:100478000C000020000000006C20000008B5054BAF
:100488001BB105490548AFF30080BDE80840FFF7F8
:10049800CDBF00BF00000000100000206C2000004D
:1004A800A3F5803A704700BF174B002B08BF134BCA
:1004B8009D46FFF7F5FF00218B460F461348144A67
:1004C800121A01F091FD0E4B002B00D098470D4BEE
:1004D800002B00D098470020002104000D000D4893
:1004E800002802D00C48AFF3008001F085FD200001
:1004F800290000F04FFC01F065FD00BF0000080076
:100508000000000000000000000004200C00002093
:100518005400002000000000000000000F49104AAD
:10052800104B00F010F81049104A114B00F00BF86E
:100538001049114A114B00F006F81149114A124BA3
:1005480000F001F806E0521A03DD043A9858885082
:10055800FBDC704700F0FEF9FFF7A6FF0000002063
:100568000C000020B82000000C0000200C00002027
:10057800C42000000C0000200C000020C420000053
:100588000C0000200C000020C4200000FEE7FEE75D
:10059800FEE7FEE7FEE7FEE7FEE7FEE7FEE7FEE72B
:1005A800FEE700BF80B483B000AF154B1B687B60CB
:1005B800144B1B683B607B68072B19D13B68023BD7
:1005C800032B13D801A252F823F000BFE505000061
:1005D800E9050000ED050000F1050000012308E031
:1005E800002306E0002304E0002302E0002300E0EB
:1005F800002318460C37BD465DF8047B704700BFE2
:100608003001FF003401FF0080B483B000AF154B08
:100618001B687B60144B1B683B607B68072B19D1F8
:100628003B68023B032B13D801A252F823F000BF0A
:10063800490600004D06000051060000550600005E
:10064800012308E0012306E0002304E0002302E080
:10065800002300E0002318460C37BD465DF8047BF4
:10066800704700BF3001FF003401FF0080B483B041
:1006780000AF154B1B687B60144B1B683B607B68A5
:10068800072B19D13B68023B032B13D801A252F860
:1006980023F000BFAD060000B1060000B50600005B
:1006A800B9060000012308E0002306E0002304E067
:1006B800002302E0002300E0002318460C37BD4663
:1006C8005DF8047B704700BF3001FF003401FF0074
:1006D80080B483B000AF154B1B687B60144B1B685C
:1006E8003B607B68072B19D13B68023B032B13D86F
:1006F80001A252F823F000BF1107000015070000FF
:10070800190700001D070000012308E0012306E087
:10071800012304E0012302E0012300E0002318463E
:100728000C37BD465DF8047B704700BF3001FF0001
:100738003401FF0080B483B000AF154B1B687B60A9
:10074800144B1B683B607B68072B19D13B68023B45
:10075800032B13D801A252F823F000BF750700003D
:10076800790700007D07000081070000012308E0E9
:10077800002306E0002304E0002302E0002300E059
:10078800002318460C37BD465DF8047B704700BF50
:100798003001FF003401FF0080B483B000AF154B77
:1007A8001B687B60144B1B683B607B68072B19D167
:1007B8003B68023B032B13D801A252F823F000BF79
:1007C800D9070000DD070000E1070000E507000089
:1007D800012308E0002306E0002304E0002302E0F0
:1007E800002300E0002318460C37BD465DF8047B63
:1007F800704700BF3001FF003401FF0080B483B0B0
:1008080000AF154B1B687B60144B1B683B607B6813
:10081800072B19D13B68023B032B13D801A252F8CE
:1008280023F000BF3D080000410800004508000013
:1008380049080000012308E0002306E0002304E043
:10084800002302E0002300E0002318460C37BD46D1
:100858005DF8047B704700BF3001FF003401FF00E2
:1008680080B483B000AF154B1B687B60144B1B68CA
:100878003B607B68072B19D13B68023B032B13D8DD
:1008880001A252F823F000BFA1080000A50800004B
:10089800A9080000AD080000012308E0012306E0D4
:1008A800012304E0012302E0012300E000231846AD
:1008B8000C37BD465DF8047B704700BF3001FF0070
:1008C8003401FF0080B483B000AF154B1B687B6018
:1008D800144B1B683B607B68072B19D13B68023BB4
:1008E800032B13D801A252F823F000BF050900001A
:1008F800090900000D09000011090000002308E0A3
:10090800002306E0002304E0012302E0012300E0C5
:10091800002318460C37BD465DF8047B704700BFBE
:100928003001FF003401FF0080B400AF074B084AD4
:100938001B68C2F84435054B054ADB69C2F84C35DB
:1009480000BFBD465DF8047B704700BF0080FF0014
:100958000060005080B582B000AFFFF74FFF03463C
:10096800002B0CD0734B1B68002B08D1714B0D2248
:100978001A60714B01221A606F4B00221A60002323
:100988007B6000237B6011E04FF47F024FF47F010E
:100998007B68603351F8333019467B686033DB007D
:1009A80013445B680B607B6801337B607B681F2B9B
:1009B80008D84FF47F027B68603352F83330B3F1C4
:1009C800FF3FE1D1FFF7B6FE0346002B05D05B4B96
:1009D80029221A605A4B03221A60FFF7E3FD0346E7
:1009E800002B07D0574B584A1A604FF0502301226A
:1009F800C3F85825FFF708FE0346002B02D0534BD7
:100A080000221A60FFF732FE0346002B11D04FF088
:100A18005023D3F8003403F00103002B09D04FF022
:100A280050230022C3F814214FF050230022C3F8AA
:100A38001821FFF74DFE0346002B0DD04FF0502331
:100A4800D3F8003403F00103002B05D04FF05023F6
:100A58006FF00102C3F80024FFF79EFE0346002B47
:100A680002D0364B65221A60FFF7FAFE0346002BC8
:100A780021D0374B1B68002B1DDA4FF0502303227F
:100A8800C3F818254FF0502301229A6000BF4FF099
:100A98005023D3F80431002BF9D04FF05023002213
:100AA800C3F804214FF050230122DA604FF050239D
:100AB8000122C3F81825FFF705FF0346002B1AD0BB
:100AC8001E4B7E221A60234B7E221A60224B7F2205
:100AD8001A60224B00221A60214B00221A60214B17
:100AE80000221A60204B00221A60204B00221A6054
:100AF8001F4B00221A6000F03FF81E4BD3F88C30D1
:100B08001C4A43F44063C2F88C30FFF70DFF194BC1
:100B1800D3F88830174A43F47003C2F88830BFF31B
:100B28004F8F00BFBFF36F8F00BF00BF0837BD46B0
:100B380080BD00BF204A00501C4900500C4700509F
:100B48003C470050309503504400EFBE4C250350FD
:100B5800202403503C49005018210050049E0350A3
:100B6800089E035010111050242100502C210050D1
:100B7800A012205000ED00E080B485B000AF144B07
:100B8800FB60144BBB604FF47F037B6007E0FA689F
:100B9800131FFB60BB68191FB96012681A60FA68F6
:100BA8007B689A42F3D23F233B600B4A3B6803F5CC
:100BB800E07352F82330084923F010023B6803F52C
:100BC800E07341F823201437BD465DF8047B704775
:100BD800FC0FFF00FCFF07200030005080B584B0F8
:100BE80000AF78600023FB60786800F0BEF8034629
:100BF800002B02D0012B03D004E0054BFB6001E081
:100C0800044BFB60FB6818461037BD4680BD00BF2B
:100C1800002584500028845080B586B000AF7860E5
:100C2800084611461A460346FB700B46BB7013462E
:100C38007B703B1D1846FFF7D1FF78617A687B69A6
:100C4800803253F822303B61114BFB60FB68DB4379
:100C58003A6913403B61FA78BB785B001A437B78AA
:100C68009B001A4397F820301B021A4397F8243048
:100C78001B0413433A6913433B617A687B698032EA
:100C8800396943F8221000BF1837BD4680BD00BF40
:100C98000F0F030080B584B002AF78600023019382
:100CA800002300930023012201217868FFF7B4FF95
:100CB80000BF0837BD4680BD80B584B000AF7860FE
:100CC8003B1D1846FFF78AFFF8607B68012202FA8D
:100CD80003F31946F86800F02CF800BF1037BD463A
:100CE80080BD80B584B000AF78603B1D1846FFF723
:100CF80075FFF8607B68012202FA03F31946F86869
:100D080000F025F800BF1037BD4680BD80B582B021
:100D180000AF786039603B68002B03D17868FFF733
:100D2800E0FF02E07868FFF7C7FF00BF0837BD465D
:100D380080BD80B483B000AF786039607B683A6862
:100D48009A6000BF0C37BD465DF8047B704780B4DD
:100D580083B000AF786039607B683A68DA6000BFBA
:100D68000C37BD465DF8047B704780B485B000AF92
:100D780078607B681B68FB60FB6803F01F027B6878
:100D88001A60FB685B0918461437BD465DF8047B9A
:100D98007047000080B592B000AF07F1200324220D
:100DA8000021184601F020F914233B6216237B62C8
:100DB8004FF0FF33BB624FF0FF33FB624FF0EB7332
:100DC8007B63072387F8383007F120030022194690
:100DD800694800F08DFE78641C20FFF75BFF1D203A
:100DE800FFF758FF1E20FFF755FF1F20FFF752FFA0
:100DF80001211C20FFF78AFF01211D20FFF786FF34
:100E080001211E20FFF782FF01211F20FFF77EFF2F
:100E180001F06EF8594A07F11C031268114619804F
:100E28000233120C1A70564B7B6100233B76554AED
:100E380007F10C0392E80300186004331980524B41
:100E48007B6000233B72514A3B4612681146198069
:100E58000233120C1A7001224D49474800F03AFF3C
:100E68007864394600230322434800F09BFE484B30
:100E78001B78613B162BEED801A252F823F000BF75
:100E8800E50E00005F0E00005F0E00002F0F00004F
:100E98005F0E00005F0E00005F0E00005F0E000096
:100EA8005F0E00005F0E00005F0E00005F0E000086
:100EB8005F0E00005F0E00005F0E00005F0E000076
:100EC8005F0E00005F0E0000550F00005F0E00006F
:100ED8005F0E00005F0E0000090F0000391D00239F
:100EE8000522254800F05EFE00211C20FFF70EFFBA
:100EF800C82001F01FF801211C20FFF707FF39E087
:100F080007F11C01002303221B4800F04BFE0021BF
:100F18001D20FFF7FBFEC82001F00CF801211D2061
:100F2800FFF7F4FE26E007F10C0100230622124821
:100F380000F038FE00211E20FFF7E8FEC82000F070
:100F4800F9FF01211E20FFF7E1FE13E007F114016C
:100F580000230522084800F025FE00211F20FFF786
:100F6800D5FEC82000F0E6FF01211F20FFF7CEFEC6
:100F780000BF70E76FE700BF040000200004000016
:100F8800646F776E040400006C6566740C040000DE
:100F98002800002080B483B000AF78607B681B68AD
:100FA80000BF0C37BD465DF8047B704780B400AFC6
:100FB80000BFBD465DF8047B704780B400AF00BF3A
:100FC800BD465DF8047B704780B400AF00BFBD46E6
:100FD8005DF8047B704780B483B000AF78603960F7
:100FE8003B6803F06043B3F1005F0CBF01230023AB
:100FF800DBB218460C37BD465DF8047B704780B5F8
:1010080082B000AF78600B467B807B887A68134497
:1010180000221A607B887A6813441846FFF7BAFFE3
:1010280000BF0837BD4680BD80B483B000AF78608C
:101038000B467B807B887A6813441B68002B14BF9F
:1010480001230023DBB218460C37BD465DF8047B4C
:10105800704780B483B000AF786039607B68D3F89C
:1010680000223B681A437B68C3F8002200BF0C3794
:10107800BD465DF8047B704780B483B000AF7860EC
:1010880039607B683A68C3F8042300BF0C37BD4653
:101098005DF8047B704780B483B000AF7860396036
:1010A8007B683A68C3F8082300BF0C37BD465DF873
:1010B800047B704780B485B000AF78607B68D3F854
:1010C8008034FB607B68FA68C3F88024FB681846A4
:1010D8001437BD465DF8047B704780B483B000AF19
:1010E80078607B680822C3F8002500BF0C37BD462E
:1010F8005DF8047B704780B483B000AF78607B688C
:101108000022C3F8002500BF0C37BD465DF8047BFC
:10111800704780B485B000AFF860B9607A60FB684A
:10112800BA68C3F80C25FB687A68C3F8142500BFB1
:101138001437BD465DF8047B704780B485B000AFB6
:10114800F860B9607A60FB68BA68C3F80825FB687C
:101158007A68C3F8102500BF1437BD465DF8047BD4
:10116800704780B483B000AF78600B46FB70FB78A3
:101178007A68134401221A6000BF0C37BD465DF837
:10118800047B704780B483B000AF786039603B68F7
:101198005A783B689B781343DBB21A463B689B88B6
:1011A80013433A6812781A437B68C3F86C2500BF6A
:1011B8000C37BD465DF8047B704780B483B000AF40
:1011C800786039607B683A68C3F8242500BF0C371B
:1011D800BD465DF8047B704780B485B000AFF86009
:1011E800B9607A60BA68FB68C3F84425FB687A6816
:1011F800C3F8482500BF1437BD465DF8047B704727
:1012080080B485B000AFF860B9607A60BA68FB68EE
:10121800C3F83425FB687A68C3F8382500BF14374B
:10122800BD465DF8047B704780B483B000AF78603A
:101238007B68D3F83C3518460C37BD465DF8047B0F
:10124800704780B582B000AF786039603B681B6931
:1012580019467868FFF7B1FF3B6814331946786878
:10126800FFF790FF3B689B7E83F00103DBB2002B06
:1012780007D03B6819683B685B681A467868FFF7CF
:1012880048FF3B681B7D012B0ED13B689B7E83F09A
:101298000103DBB2002B07D03B6899683B68DB6829
:1012A8001A467868FFF749FFFFF780FE00BF083746
:1012B800BD4680BD80B584B000AFF860B960114606
:1012C8001A460B46FB711346BB714FF48072B9681E
:1012D800F86800F078F94FF48272B968F86800F09D
:1012E80072F94FF48472B968F86800F06CF94FF439
:1012F8008872B968F86800F066F94FF48E72B968B8
:10130800F86800F060F94FF49072B968F86800F076
:101318005AF94FF49272B968F86800F054F94FF42A
:10132800A272B968F86800F04EF94FF4A672B9686D
:10133800F86800F048F94FF4A872B968F86800F046
:1013480042F94FF4AC72B968F86800F03CF9FFF75D
:101358002DFEBB79002B03D0B968F868FFF78CFE27
:10136800FFF724FE00BF1037BD4680BD80B586B0AC
:1013780000AFF860B9607A607A68B968F86800F018
:1013880075F97861FFF712FE7B6918461837BD4674
:1013980080BD80B582B000AF786039600C21786874
:1013A800FFF7DFFEFFF702FE00BF00224FF48001C7
:1013B800786800F05BF90346002BF6D03B68002BF9
:1013C80013D03B685B68002B0FD004217868FFF7C7
:1013D800C8FEFFF7EBFD00BF3A684FF400317868AC
:1013E80000F044F90346002BF6D000BF0837BD468D
:1013F80080BD000080B584B000AF78600B46FB70FC
:101408000023FB6008217868FFF7ABFEFB78002B10
:101418000CD00A4BBB60FFF7C9FD0022B968786899
:10142800FFF7A4FFF860FB68002BF6D0FFF7BEFDBE
:10143800FB6818461037BD4680BD00BF000140005C
:1014480080B584B000AF786039600023FB6000216C
:101458007868FFF786FE3B68002B0CD0094BBB6011
:10146800FFF7A4FD3A68B9687868FFF77FFFF8606E
:10147800FB68002BF6D0FFF799FDFB68184610377C
:10148800BD4680BD1002020080B582B000AF786012
:101498000B467B807B8819467868FFF7B0FDFFF71D
:1014A80085FD00BF0837BD4680BD80B582B000AF5E
:1014B8007860396039687868FFF7CBFDFFF776FD0B
:1014C80000BF0837BD4680BD80B582B000AF7860E8
:1014D800396039687868FFF7CFFDFFF767FD00BF0F
:1014E8000837BD4680BD80B582B000AF78603960EE
:1014F80039687868FFF7CFFDFFF758FD00BF083758
:10150800BD4680BD80B584B000AF7860FFF75CFD54
:101518007868FFF7CFFDF860FFF756FDFB681846BF
:101528001037BD4680BD80B582B000AF786078685E
:10153800FFF7D3FDFFF73AFD00BF0837BD4680BD72
:1015480080B582B000AF78607868FFF7D4FDFFF708
:101558002DFD00BF0837BD4680BD80B582B000AF05
:1015680078600B46FB70FB7819467868FFF7F9FD41
:10157800FFF71CFD00BF0837BD4680BD80B584B0AD
:1015880000AFF860B9607A60BB68002B06D07A6853
:10159800B968F868FFF720FEFFF708FD00BF1037AD
:1015A800BD4680BD80B584B000AFF860B9607A6090
:1015B8007A68B968F868FFF723FEFFF7F7FC00BF01
:1015C8001037BD4680BD80B584B000AFF860B96003
:1015D8001346FB80FB88A3F580739B08012202FA5F
:1015E80003F31A46BB681340002B04D0FB88194646
:1015F800F868FFF704FD00BF1037BD4680BD80B511
:1016080084B000AFF860B9603B601346FB80FB888C
:10161800A3F580739B08012202FA03F31A46BB68FC
:101628001340002B1DD0FB881946F868FFF7FCFC17
:101638000346002B15D0FB881946F868FFF7DFFC36
:101648003B68002B0BD03B681B68FA88A2F58072B8
:101658009208012101FA02F21A433B681A60012339
:1016680000E0002318461037BD4680BD80B586B01F
:1016780000AFF860B9607A6000233B61FFF79DFC1A
:1016880007F110034FF48072B968F868FFF7B7FFE5
:1016980007F110034FF48272B968F868FFF7AFFFDB
:1016A80007F110034FF48472B968F868FFF7A7FFD1
:1016B80007F110034FF48872B968F868FFF79FFFC5
:1016C80007F110034FF48E72B968F868FFF797FFB7
:1016D80007F110034FF49072B968F868FFF78FFFAD
:1016E80007F110034FF49272B968F868FFF787FFA3
:1016F80007F110034FF4A272B968F868FFF77FFF8B
:1017080007F110034FF4A672B968F868FFF777FF7E
:1017180007F110034FF4A872B968F868FFF76FFF74
:1017280007F110034FF4AC72B968F868FFF767FF68
:10173800BB6803F01003002B0AD1BB6803F4003325
:10174800002B05D0F868FFF76FFD7861FFF73CFCC8
:10175800FFF72CFC3B6918461837BD4680BD0000D2
:1017680080B584B000AF78600023FB60786800F033
:101778009CF80346002B02D0012B03D004E0054B54
:10178800FB6001E0044BFB60FB6818461037BD4660
:1017980080BD00BF002584500028845080B586B0E5
:1017A80000AF7860084611461A460346FB700B46A0
:1017B800BB7013467B703B1D1846FFF7D1FF78615D
:1017C8007A687B69803253F822303B61114BFB60A9
:1017D800FB68DB433A6913403B61FA78BB785B00EE
:1017E8001A437B789B001A4397F820301B021A4350
:1017F80097F824301B0413433A6913433B617A6812
:101808007B698032396943F8221000BF1837BD461A
:1018180080BD00BF0F0F030080B584B002AF7860B1
:1018280000230193002300930023012201217868FB
:10183800FFF7B4FF00BF0837BD4680BD80B584B050
:1018480002AF78600B46FB70FB7800220192002201
:101858000092002200217868FFF7A0FF00BF083738
:10186800BD4680BD80B584B000AF78603B1D18468A
:10187800FFF776FFF8607B68012202FA03F3194646
:10188800F86800F004F800BF1037BD4680BD80B48A
:1018980083B000AF786039607B683A689A6000BFAF
:1018A8000C37BD465DF8047B704780B485B000AF47
:1018B80078607B681B68FB60FB6803F01F027B682D
:1018C8001A60FB685B0918461437BD465DF8047B4F
:1018D800704780B582B000AF78607868FFF79CFFEA
:1018E800FFF764FB00BF0837BD4680BD80B582B0F6
:1018F80000AF78600B46FB70FB7819467868FFF7F5
:101908009DFFFFF753FB00BF0837BD4680BD80B57C
:1019180082B000AF78607868FFF7A4FFFFF746FB56
:1019280000BF0837BD4680BD80B58AB000AF78607B
:1019380039603B6893F8203083F00103DBB2002B59
:1019480019D03B681B68B3F1FF3F09D03B681B689F
:101958001846FFF7DCFF3B681B681846FFF7B9FF1E
:101968003B685B68B3F1FF3F05D03B685B680021CB
:101978001846FFF7BBFF3B689B7E012B21D13B68D4
:1019880093F8203083F00103DBB2002B19D03B68B9
:10199800DB68B3F1FF3F05D03B68DB6800211846E0
:1019A800FFF7A4FF3B689B68B3F1FF3F09D03B6892
:1019B8009B681846FFF7ABFF3B689B681846FFF724
:1019C80088FF07F10C0300221A605A609A60DA60F7
:1019D8001A615A619A613B681B68FB603B685B68E7
:1019E8003B613B689B687B613B68DB68BB613B682C
:1019F8005B69FB613B6893F8213087F826303A68C9
:101A080007F120031A321068186092889A807B6860
:101A18001B6807F10C0211461846FFF712FC78689C
:101A280000F01EF87B681B7919460B4A0B46DB0051
:101A38000B449B00134404331B68002B07D07B68BE
:101A480018683B681A7E01230449FFF733FC00BF7E
:101A58002837BD4680BD00BF2C000020100342007F
:101A680080B586B000AF78607B681B6803F264536A
:101A7800FB607B681B6803F5AD63BB60BB681B68D4
:101A8800012B05D17B681B680C211846FFF765FD03
:101A9800FB681B68012B26D17B681B681846FFF77B
:101AA80042FD7B681B6804211846FFF756FD00239A
:101AB800FB7549F640433B61FB681B68002B02D16C
:101AC8000123FB7505E03B69013B3B613B69002B4A
:101AD800F2D17B681B681846FFF714FD7B681B680A
:101AE8001846FFF72DFD00BF1837BD4680BD000022
:101AF80080B586B000AFF860B9607A60FB681B7982
:101B08001A461346DB0013449B00234A13447B61A7
:101B1800224B3B617B6993F82030002B03D0204B8C
:101B28003B613B6934E07B697A685A60BB68002B8B
:101B38001BD0BB681A697B691A60BB6893F82010D0
:101B48007A6992F8223061F3000382F82230BB6888
:101B580093F821107A6992F8223061F3410382F8F0
:101B68002230B968F868FFF7DFFEFB681B68184683
:101B7800FFF7D9FC7B6900229A617B690022DA6150
:101B88007B6900225A617B69012283F820203B6926
:101B980018461837BD4680BD2C0000200000AD0B4C
:101BA8000500AD0B80B588B000AFF860B9607A6009
:101BB8003B60FB681B791A461346DB0013449B0005
:101BC800314A1344BB61314BFB61FB681B68B96840
:101BD8001846FFF700FA034683F00103DBB2002B37
:101BE80003D02B4BFB61FB694AE0F86800F056F81C
:101BF8000346002B03D0274BFB61FB6940E0BB6920
:101C08007A685A61BB69BA689A60FB681B684FF4C6
:101C180090711846FFF738FCFB681B684FF4AC71ED
:101C28001846FFF731FCFB681868BB699968BB69FF
:101C38005B691A46FFF7A2FCFB681A68BB695B6818
:101C4800002B0CBF01230023DBB219461046FFF717
:101C5800D1FB7861BB695B68002B10D17B6903F409
:101C68008003002B02D00C4BFB6105E0FB681B686E
:101C780000211846FFF78DFBBB6900225A61FB69FA
:101C880018462037BD4680BD2C0000200000AD0B53
:101C98000A00AD0B0B00AD0B0800AD0B80B483B090
:101CA80000AF78607B681B791946094A0B46DB0050
:101CB8000B449B00134414331B68002B14BF0123EF
:101CC8000023DBB218460C37BD465DF8047B70472D
:101CD8002C00002080B58AB000AFF860B9607A6047
:101CE800FB681B791A461346DB0013449B00584ACD
:101CF8001344BB61574B7B62FB681B68B968184685
:101D0800FFF769F9034683F00103DBB2002B03D028
:101D1800514B7B627B6A97E0002387F82330BB69CD
:101D28005B68002B06D0FB681B684FF404711846EB
:101D3800FFF7D9FBBB699B69002B15D0BB69DB6931
:101D4800002B0ED0BB695B68002B06D0FB681B68B4
:101D58004FF404711846FFF7B7FB404B7B627B6A70
:101D680072E0012387F8233097F8233083F00103CA
:101D7800DBB2002B09D0BB697A689A61BB69BA6883
:101D8800DA60BB690022DA6105E0BB69BA681A61EA
:101D9800BB697A68DA61FB681B684FF4887118467A
:101DA800FFF772FBFB681B684FF4A2711846FFF738
:101DB8006BFBFB681B687A68B9681846FFF7F2FB8B
:101DC8000023FB6197F82330002B06D0FB681B68C3
:101DD80020211846FFF769FB14E0BB69DB683B610B
:101DE800BB699B697B61FB681A68BB695B68002BF0
:101DF80002D107F1100300E0002319461046FFF74F
:101E08001FFBF861BB695B68002B11D1BB6900221D
:101E18009A61FB6903F40073002B01D0104B7B62BD
:101E2800FB6903F40033002B0DD00E4B7B620AE0F4
:101E3800BB69002283F82120FB681B684FF40471FA
:101E48001846FFF741FB7B6A18462837BD4680BD18
:101E58002C0000200000AD0B0A00AD0B0B00AD0BF1
:101E68000100AD0B0800AD0B80B483B000AF786003
:101E7800044A7B68136000BF0C37BD465DF8047BDD
:101E8800704700BF10E000E080B483B000AF786016
:101E9800044A7B68536000BF0C37BD465DF8047B7D
:101EA800704700BF10E000E080B400AF034B9B68B0
:101EB8001846BD465DF8047B704700BF10E000E09F
:101EC80080B483B000AF7860074B1B68074AA2FB59
:101ED80003239B097A6802FB03F318460C37BD46B7
:101EE8005DF8047B704700BF00000020D34D6210EE
:101EF80080B500AF6FF07F40FFF7C6FF0520FFF702
:101F0800B3FF00BF80BD80B584B000AF7860FFF735
:101F1800CBFFF86000BFFFF7C7FF0246FB689B1ABC
:101F280023F07F437A689A42F5D800BF00BF103784
:101F3800BD4680BD80B584B000AF78601E4B1B687D
:101F48001E4AA2FB03239B091D4AB2FBF3F37A68DE
:101F5800B2FBF3F3FB60184B1B68184AA2FB032380
:101F68009B09174AB2FBF3F27B68B3FBF2F101FB62
:101F780002F29B1ABB600FE00F4B1B680F4AA2FBD3
:101F880003239B090E4AB2FBF3F31846FFF798FFA9
:101F980003461846FFF7B7FFFB685A1EFA60002B86
:101FA800EAD1B868FFF78CFF03461846FFF7ABFF86
:101FB80000BF1037BD4680BD00000020D34D621021
:101FC800FFFF7F0008B5064B044613B10021AFF3AD
:101FD8000080044B1B6803B19847204600F030F896
:101FE800000000005000002002440346934200D144
:101FF800704703F8011BF9E770B50D4D00260D4C2D
:10200800641BA410A64209D10B4D00260B4C00F00E
:1020180019F8641BA410A64205D170BD55F8043BFD
:1020280001369847EEE755F8043B01369847F2E742
:102038005820000058200000582000005C200000B4
:10204800FEE700BFF8B500BFF8BC08BC9E46704765
:1020580085040000F8B500BFF8BC08BC9E46704770
:082068005D040000000000000F
:10207000B82000000000002003000000C420000081
:102080000C00002000000000C42000000C00002014
:1020900000000000C42000000C0000200000000030
:1020A0000C0000201200000054000020000000007E
:0820B0005400002000000000B4
:0C20B8000090D0030080005000000000E9
:0400000300000525CF
:00000001FF
