:10000000000004204D050000BD050000BF050000F4
:10001000C1050000C3050000C5050000C7050000BC
:10002000000000000000000000000000C905000002
:10003000CB05000000000000CD050000CF0500004A
:10004000D1050000D105000000000000D10500002E
:1000500000000000D10500000000000000000000CA
:10006000D1050000D1050000D1050000D105000038
:10007000D1050000D1050000D1050000D105000028
:10008000D1050000D10500000000000000000000C4
:10009000D1050000D10500000000000000000000B4
:1000A000D1050000D1050000D1050000D1050000F8
:1000B000D1050000D1050000D1050000D1050000E8
:1000C000D1050000D1050000D1050000D1050000D8
:1000D000D105000000000000D10500000000000074
:1000E000D105000000000000D1050000D10500008E
:1000F00000000000D105000000000000D105000054
:10010000000000000000000000000000D105000019
:10011000D105000000000000D1050000D10500005D
:1001200000000000D10500000000000000000000F9
:1001300000000000000000000000000000000000BF
:1001400000000000000000000000000000000000AF
:10015000D1050000000000000000000000000000C9
:10016000000000000000000000000000000000008F
:10017000000000000000000000000000000000007F
:10018000000000000000000000000000000000006F
:10019000000000000000000000000000000000005F
:100400001B63000050726F6772616D2073746172BC
:100410007465640D0A0000000D0A50726F67726106
:100420006D20656E646564207769746820737472EA
:05043000696E67200069
:08043800980000000100000023
:100440000348044B834202D0034B03B11847704763
:10045000080000200800002000000000064B0749AB
:10046000C91A891048BF0131491003D0044B0BB1A0
:1004700001481847704700BF08000020080000200E
:100480000000000010B5064C237843B9FFF7D8FFF1
:10049000044B13B10448AFF300800123237010BD57
:1004A00008000020000000001C1D000008B5054BDE
:1004B0001BB105490548AFF30080BDE80840FFF7D0
:1004C000CDBF00BF000000000C0000201C1D00007C
:1004D000A3F5803A704700BF174B002B08BF134BA2
:1004E0009D46FFF7F5FF00218B460F461348144A3F
:1004F000121A01F0D5FB0E4B002B00D098470D4B84
:10050000002B00D098470020002104000D000D486A
:10051000002802D00C48AFF3008001F0C9FB200096
:10052000290000F0BDFB01F0A9FB00BF000008009E
:10053000000000000000000000000420080000206F
:100540004C00002000000000000000000F49104A8D
:10055000104B00F010F81049104A114B00F00BF846
:100560001049114A114B00F006F81149114A124B7B
:1005700000F001F806E0521A03DD043A985888505A
:10058000FBDC704700F0FEF9FFF7A6FF000000203B
:1005900008000020681D000008000020080000205E
:1005A000701D00000800002008000020701D0000E1
:1005B0000800002008000020701D0000FEE7FEE794
:1005C000FEE7FEE7FEE7FEE7FEE7FEE7FEE7FEE703
:1005D000FEE700BF80B483B000AF154B1B687B60A3
:1005E000144B1B683B607B68072B19D13B68023BAF
:1005F000032B13D801A252F823F000BF0D06000010
:10060000110600001506000019060000012308E08D
:10061000002306E0002304E0002302E0002300E0C2
:10062000002318460C37BD465DF8047B704700BFB9
:100630003001FF003401FF0080B483B000AF154BE0
:100640001B687B60144B1B683B607B68072B19D1D0
:100650003B68023B032B13D801A252F823F000BFE2
:100660007106000075060000790600007D06000096
:10067000012308E0012306E0002304E0002302E058
:10068000002300E0002318460C37BD465DF8047BCC
:10069000704700BF3001FF003401FF0080B483B019
:1006A00000AF154B1B687B60144B1B683B607B687D
:1006B000072B19D13B68023B032B13D801A252F838
:1006C00023F000BFD5060000D9060000DD060000BB
:1006D000E1060000012308E0002306E0002304E017
:1006E000002302E0002300E0002318460C37BD463B
:1006F0005DF8047B704700BF3001FF003401FF004C
:1007000080B483B000AF154B1B687B60144B1B6833
:100710003B607B68072B19D13B68023B032B13D846
:1007200001A252F823F000BF390700003D07000086
:100730004107000045070000012308E0012306E00F
:10074000012304E0012302E0012300E00023184616
:100750000C37BD465DF8047B704700BF3001FF00D9
:100760003401FF0080B483B000AF154B1B687B6081
:10077000144B1B683B607B68072B19D13B68023B1D
:10078000032B13D801A252F823F000BF9D070000ED
:10079000A1070000A5070000A9070000012308E049
:1007A000002306E0002304E0002302E0002300E031
:1007B000002318460C37BD465DF8047B704700BF28
:1007C0003001FF003401FF0080B483B000AF154B4F
:1007D0001B687B60144B1B683B607B68072B19D13F
:1007E0003B68023B032B13D801A252F823F000BF51
:1007F0000108000005080000090800000D080000BD
:10080000012308E0002306E0002304E0002302E0C7
:10081000002300E0002318460C37BD465DF8047B3A
:10082000704700BF3001FF003401FF0080B483B087
:1008300000AF154B1B687B60144B1B683B607B68EB
:10084000072B19D13B68023B032B13D801A252F8A6
:1008500023F000BF65080000690800006D08000073
:1008600071080000012308E0002306E0002304E0F3
:10087000002302E0002300E0002318460C37BD46A9
:100880005DF8047B704700BF3001FF003401FF00BA
:1008900080B483B000AF154B1B687B60144B1B68A2
:1008A0003B607B68072B19D13B68023B032B13D8B5
:1008B00001A252F823F000BFC9080000CD080000D3
:1008C000D1080000D5080000012308E0012306E05C
:1008D000012304E0012302E0012300E00023184685
:1008E0000C37BD465DF8047B704700BF3001FF0048
:1008F0003401FF0080B483B000AF154B1B687B60F0
:10090000144B1B683B607B68072B19D13B68023B8B
:10091000032B13D801A252F823F000BF2D090000C9
:10092000310900003509000039090000002308E002
:10093000002306E0002304E0012302E0012300E09D
:10094000002318460C37BD465DF8047B704700BF96
:100950003001FF003401FF0080B400AF074B084AAC
:100960001B68C2F84435054B054ADB69C2F84C35B3
:1009700000BFBD465DF8047B704700BF0080FF00EC
:100980000060005080B582B000AFFFF74FFF034614
:10099000002B0CD0734B1B68002B08D1714B0D2220
:1009A0001A60714B01221A606F4B00221A600023FB
:1009B0007B6000237B6011E04FF47F024FF47F01E6
:1009C0007B68603351F8333019467B686033DB0055
:1009D00013445B680B607B6801337B607B681F2B73
:1009E00008D84FF47F027B68603352F83330B3F19C
:1009F000FF3FE1D1FFF7B6FE0346002B05D05B4B6E
:100A000029221A605A4B03221A60FFF7E3FD0346BE
:100A1000002B07D0574B584A1A604FF05023012241
:100A2000C3F85825FFF708FE0346002B02D0534BAE
:100A300000221A60FFF732FE0346002B11D04FF060
:100A40005023D3F8003403F00103002B09D04FF0FA
:100A500050230022C3F814214FF050230022C3F882
:100A60001821FFF74DFE0346002B0DD04FF0502309
:100A7000D3F8003403F00103002B05D04FF05023CE
:100A80006FF00102C3F80024FFF79EFE0346002B1F
:100A900002D0364B65221A60FFF7FAFE0346002BA0
:100AA00021D0374B1B68002B1DDA4FF05023032257
:100AB000C3F818254FF0502301229A6000BF4FF071
:100AC0005023D3F80431002BF9D04FF050230022EB
:100AD000C3F804214FF050230122DA604FF0502375
:100AE0000122C3F81825FFF705FF0346002B1AD093
:100AF0001E4B7E221A60234B7E221A60224B7F22DD
:100B00001A60224B00221A60214B00221A60214BEE
:100B100000221A60204B00221A60204B00221A602B
:100B20001F4B00221A6000F03FF81E4BD3F88C30A8
:100B30001C4A43F44063C2F88C30FFF70DFF194B99
:100B4000D3F88830174A43F47003C2F88830BFF3F3
:100B50004F8F00BFBFF36F8F00BF00BF0837BD4688
:100B600080BD00BF204A00501C4900500C47005077
:100B70003C470050309503504400EFBE4C250350D5
:100B8000202403503C49005018210050049E03507B
:100B9000089E035010111050242100502C210050A9
:100BA000A012205000ED00E080B485B000AF144BDF
:100BB000FB60144BBB604FF47F037B6007E0FA6877
:100BC000131FFB60BB68191FB96012681A60FA68CE
:100BD0007B689A42F3D23F233B600B4A3B6803F5A4
:100BE000E07352F82330084923F010023B6803F504
:100BF000E07341F823201437BD465DF8047B70474D
:100C0000FC0FFF00FCFF07200030005080B584B0CF
:100C100000AF786039600023FB6016E0FB687A68FB
:100C20001344012219460D4800F05EFFFB687A6804
:100C300013441B780D2B05D1FB687A6813440022FE
:100C40001A7007E0FB680133FB60FA683B689A4260
:100C5000E4DB00BF00BF1037BD4680BD00000020B0
:100C600080B584B000AF78600023FB600AE0FB68C9
:100C70007A68D11800230122084800F09DFEFB6825
:100C80000133FB60FB687A6813441B78002BEED1BC
:100C900000BF00BF1037BD4680BD00BF0000002070
:100CA000F0B5D7B000AF07F59A732422002118469B
:100CB00000F0F6FF1423C7F834311623C7F8383193
:100CC0004FF0FF33C7F83C314FF0FF33C7F84031E6
:100CD0004FF0EB73C7F84831072387F84C3107F51D
:100CE0009A73002219462C4800F00CFE2B4A07F597
:100CF00098731268114619800233120C1A7007F5A6
:100D0000987100230322244800F056FE244B07F17B
:100D1000CC041D4628686968AA68EB680FC42B8A52
:100D2000238007F1DE0352220021184600F0B8FFAD
:100D300007F1CC031846FFF793FF07F1680364211E
:100D40001846FFF763FF07F5AC73A3F5AA76154BBA
:100D500034461D4628686968AA68EB680FC428698C
:100D60006969AA6907C42B7F237006F11D03472216
:100D70000021184600F094FF3B1D1846FFF770FF56
:100D800007F168031846FFF76BFF0023184607F5C5
:100D9000AE77BD46F0BD00BF00000020000400009B
:100DA000040400001804000080B483B000AF786031
:100DB0007B681B6800BF0C37BD465DF8047B70473D
:100DC00080B400AF00BFBD465DF8047B704780B4BF
:100DD00000AF00BFBD465DF8047B704780B400AF34
:100DE00000BFBD465DF8047B704780B483B000AFA0
:100DF000786039603B6803F06043B3F1005F0CBF7B
:100E000001230023DBB218460C37BD465DF8047B96
:100E1000704780B582B000AF78600B467B807B88DE
:100E20007A68134400221A607B887A681344184653
:100E3000FFF7BAFF00BF0837BD4680BD80B483B05E
:100E400000AF78600B467B807B887A6813441B6810
:100E5000002B14BF01230023DBB218460C37BD461C
:100E60005DF8047B704780B483B000AF7860396070
:100E70007B68D3F800223B681A437B68C3F80022E2
:100E800000BF0C37BD465DF8047B704780B483B06B
:100E900000AF786039607B683A68C3F8042300BF0C
:100EA0000C37BD465DF8047B704780B483B000AF5B
:100EB000786039607B683A68C3F8082300BF0C3754
:100EC000BD465DF8047B704780B485B000AF7860A4
:100ED0007B68D3F88034FB607B68FA68C3F88024B1
:100EE000FB6818461437BD465DF8047B704780B434
:100EF00083B000AF78607B680822C3F8002500BF8C
:100F00000C37BD465DF8047B704780B483B000AFFA
:100F100078607B680022C3F8002500BF0C37BD460F
:100F20005DF8047B704780B485B000AFF860B960AD
:100F30007A60FB68BA68C3F80C25FB687A68C3F866
:100F4000142500BF1437BD465DF8047B704780B49C
:100F500085B000AFF860B9607A60FB68BA68C3F822
:100F60000825FB687A68C3F8102500BF1437BD4612
:100F70005DF8047B704780B483B000AF78600B46A7
:100F8000FB70FB787A68134401221A6000BF0C37AB
:100F9000BD465DF8047B704780B483B000AF7860D5
:100FA00039603B685A783B689B781343DBB21A463A
:100FB0003B689B8813433A6812781A437B68C3F8EE
:100FC0006C2500BF0C37BD465DF8047B704780B4CC
:100FD00083B000AF786039607B683A68C3F8242535
:100FE00000BF0C37BD465DF8047B704780B485B008
:100FF00000AFF860B9607A60BA68FB68C3F844254E
:10100000FB687A68C3F8482500BF1437BD465DF811
:10101000047B704780B485B000AFF860B9607A6037
:10102000BA68FB68C3F83425FB687A68C3F83825CA
:1010300000BF1437BD465DF8047B704780B483B0B1
:1010400000AF78607B68D3F83C3518460C37BD4656
:101050005DF8047B704780B582B000AF786039607E
:101060003B681B6919467868FFF7B1FF3B6814338A
:1010700019467868FFF790FF3B689B7E83F0010379
:10108000DBB2002B07D03B6819683B685B681A46E7
:101090007868FFF748FF3B681B7D012B0ED13B684A
:1010A0009B7E83F00103DBB2002B07D03B6899687D
:1010B0003B68DB681A467868FFF749FFFFF780FE58
:1010C00000BF0837BD4680BD80B584B000AFF86072
:1010D000B96011461A460B46FB711346BB714FF4BB
:1010E0008072B968F86800F078F94FF48272B968D4
:1010F000F86800F072F94FF48472B968F86800F08B
:101100006CF94FF48872B968F86800F066F94FF42A
:101110008E72B968F86800F060F94FF49072B9689F
:10112000F86800F05AF94FF49272B968F86800F064
:1011300054F94FF4A272B968F86800F04EF94FF410
:10114000A672B968F86800F048F94FF4A872B96857
:10115000F86800F042F94FF4AC72B968F86800F032
:101160003CF9FFF72DFEBB79002B03D0B968F86876
:10117000FFF78CFEFFF724FE00BF1037BD4680BD91
:1011800080B586B000AFF860B9607A607A68B968F7
:10119000F86800F075F97861FFF712FE7B69184670
:1011A0001837BD4680BD80B582B000AF7860396029
:1011B0000C217868FFF7DFFEFFF702FE00BF002278
:1011C0004FF48001786800F05BF90346002BF6D0FD
:1011D0003B68002B13D03B685B68002B0FD00421C9
:1011E0007868FFF7C8FEFFF7EBFD00BF3A684FF4E1
:1011F0000031786800F044F90346002BF6D000BFB8
:101200000837BD4680BD000080B584B000AF78606F
:101210000B46FB700023FB6008217868FFF7ABFEEC
:10122000FB78002B0CD00A4BBB60FFF7C9FD0022F6
:10123000B9687868FFF7A4FFF860FB68002BF6D068
:10124000FFF7BEFDFB6818461037BD4680BD00BFE6
:101250000001400080B584B000AF786039600023A1
:10126000FB6000217868FFF786FE3B68002B0CD0FE
:10127000094BBB60FFF7A4FD3A68B9687868FFF7CF
:101280007FFFF860FB68002BF6D0FFF799FDFB6845
:1012900018461037BD4680BD1002020080B582B0EE
:1012A00000AF78600B467B807B8819467868FFF733
:1012B000B0FDFFF785FD00BF0837BD4680BD80B596
:1012C00082B000AF7860396039687868FFF7CBFD8D
:1012D000FFF776FD00BF0837BD4680BD80B582B000
:1012E00000AF7860396039687868FFF7CFFDFFF7A5
:1012F00067FD00BF0837BD4680BD80B582B000AF36
:101300007860396039687868FFF7CFFDFFF758FDDE
:1013100000BF0837BD4680BD80B584B000AF78609F
:10132000FFF75CFD7868FFF7CFFDF860FFF756FD2B
:10133000FB6818461037BD4680BD80B582B000AF4F
:1013400078607868FFF7D3FDFFF73AFD00BF0837F4
:10135000BD4680BD80B582B000AF78607868FFF789
:10136000D4FDFFF72DFD00BF0837BD4680BD80B519
:1013700082B000AF78600B46FB70FB781946786846
:10138000FFF7F9FDFFF71CFD00BF0837BD4680BD24
:1013900080B584B000AFF860B9607A60BB68002B9C
:1013A00006D07A68B968F868FFF720FEFFF708FDF5
:1013B00000BF1037BD4680BD80B584B000AFF86077
:1013C000B9607A607A68B968F868FFF723FEFFF7BA
:1013D000F7FC00BF1037BD4680BD80B584B000AFBC
:1013E000F860B9601346FB80FB88A3F580739B0807
:1013F000012202FA03F31A46BB681340002B04D003
:10140000FB881946F868FFF704FD00BF1037BD469A
:1014100080BD80B584B000AFF860B9603B60134612
:10142000FB80FB88A3F580739B08012202FA03F37B
:101430001A46BB681340002B1DD0FB881946F8687C
:10144000FFF7FCFC0346002B15D0FB881946F86813
:10145000FFF7DFFC3B68002B0BD03B681B68FA886A
:10146000A2F580729208012101FA02F21A433B6848
:101470001A60012300E0002318461037BD4680BDE6
:1014800080B586B000AFF860B9607A6000233B6138
:10149000FFF79DFC07F110034FF48072B968F868FC
:1014A000FFF7B7FF07F110034FF48272B968F868CD
:1014B000FFF7AFFF07F110034FF48472B968F868C3
:1014C000FFF7A7FF07F110034FF48872B968F868B7
:1014D000FFF79FFF07F110034FF48E72B968F868A9
:1014E000FFF797FF07F110034FF49072B968F8689F
:1014F000FFF78FFF07F110034FF49272B968F86895
:10150000FFF787FF07F110034FF4A272B968F8687C
:10151000FFF77FFF07F110034FF4A672B968F86870
:10152000FFF777FF07F110034FF4A872B968F86866
:10153000FFF76FFF07F110034FF4AC72B968F8685A
:10154000FFF767FFBB6803F01003002B0AD1BB68ED
:1015500003F40033002B05D0F868FFF76FFD7861C6
:10156000FFF73CFCFFF72CFC3B6918461837BD46DB
:1015700080BD000080B584B000AF78600023FB60C0
:10158000786800F09CF80346002B02D0012B03D0B2
:1015900004E0054BFB6001E0044BFB60FB68184670
:1015A0001037BD4680BD00BF002584500028845000
:1015B00080B586B000AF7860084611461A460346EB
:1015C000FB700B46BB7013467B703B1D1846FFF744
:1015D000D1FF78617A687B69803253F822303B61B1
:1015E000114BFB60FB68DB433A6913403B61FA78BF
:1015F000BB785B001A437B789B001A4397F8203036
:101600001B021A4397F824301B0413433A6913430F
:101610003B617A687B698032396943F8221000BFE8
:101620001837BD4680BD00BF0F0F030080B584B0E2
:1016300002AF78600023019300230093002301226E
:1016400001217868FFF7B4FF00BF0837BD4680BDB1
:1016500080B584B002AF78600B46FB70FB78002247
:10166000019200220092002200217868FFF7A0FF7B
:1016700000BF0837BD4680BD80B584B000AF78603C
:101680003B1D1846FFF776FFF8607B68012202FADF
:1016900003F31946F86800F004F800BF1037BD46A0
:1016A00080BD80B483B000AF786039607B683A68F1
:1016B0009A6000BF0C37BD465DF8047B704780B46C
:1016C00085B000AF78607B681B68FB60FB6803F047
:1016D0001F027B681A60FB685B0918461437BD4619
:1016E0005DF8047B704780B582B000AF78607868A1
:1016F000FFF79CFFFFF764FB00BF0837BD4680BDC6
:1017000080B582B000AF78600B46FB70FB7819465D
:101710007868FFF79DFFFFF753FB00BF0837BD4612
:1017200080BD80B582B000AF78607868FFF7A4FF15
:10173000FFF746FB00BF0837BD4680BD80B58AB0C5
:1017400000AF786039603B6893F8203083F0010384
:10175000DBB2002B19D03B681B68B3F1FF3F09D007
:101760003B681B681846FFF7DCFF3B681B681846A0
:10177000FFF7B9FF3B685B68B3F1FF3F05D03B68FB
:101780005B6800211846FFF7BBFF3B689B7E012B7F
:1017900021D13B6893F8203083F00103DBB2002BAA
:1017A00019D03B68DB68B3F1FF3F05D03B68DB68CD
:1017B00000211846FFF7A4FF3B689B68B3F1FF3F89
:1017C00009D03B689B681846FFF7ABFF3B689B68F6
:1017D0001846FFF788FF07F10C0300221A605A60D1
:1017E0009A60DA601A615A619A613B681B68FB6013
:1017F0003B685B683B613B689B687B613B68DB687F
:10180000BB613B685B69FB613B6893F8213087F8FB
:1018100026303A6807F120031A321068186092885F
:101820009A807B681B6807F10C0211461846FFF787
:1018300012FC786800F01EF87B681B7919460B4A89
:101840000B46DB000B449B00134404331B68002B46
:1018500007D07B6818683B681A7E01230449FFF7AC
:1018600033FC00BF2837BD4680BD00BF24000020E8
:101870001003420080B586B000AF78607B681B68BB
:1018800003F26453FB607B681B6803F5AD63BB60C8
:10189000BB681B68012B05D17B681B680C211846AF
:1018A000FFF765FDFB681B68012B26D17B681B6871
:1018B0001846FFF742FD7B681B6804211846FFF7B6
:1018C00056FD0023FB7549F640433B61FB681B68EE
:1018D000002B02D10123FB7505E03B69013B3B6115
:1018E0003B69002BF2D17B681B681846FFF714FD9B
:1018F0007B681B681846FFF72DFD00BF1837BD46F3
:1019000080BD000080B586B000AFF860B9607A6035
:10191000FB681B791A461346DB0013449B00234ADD
:1019200013447B61224B3B617B6993F82030002B91
:1019300003D0204B3B613B6934E07B697A685A6095
:10194000BB68002B1BD0BB681A697B691A60BB6837
:1019500093F820107A6992F8223061F3000382F83C
:101960002230BB6893F821107A6992F8223061F333
:10197000410382F82230B968F868FFF7DFFEFB68A0
:101980001B681846FFF7D9FC7B6900229A617B69C6
:101990000022DA617B6900225A617B69012283F8A7
:1019A00020203B6918461837BD4680BD2400002022
:1019B0000000AD0B0500AD0B80B588B000AFF8603E
:1019C000B9607A603B60FB681B791A461346DB00FE
:1019D00013449B00314A1344BB61314BFB61FB68EC
:1019E0001B68B9681846FFF700FA034683F0010345
:1019F000DBB2002B03D02B4BFB61FB694AE0F8689C
:101A000000F056F80346002B03D0274BFB61FB691F
:101A100040E0BB697A685A61BB69BA689A60FB6842
:101A20001B684FF490711846FFF738FCFB681B6881
:101A30004FF4AC711846FFF731FCFB681868BB69BE
:101A40009968BB695B691A46FFF7A2FCFB681A68D4
:101A5000BB695B68002B0CBF01230023DBB2194676
:101A60001046FFF7D1FB7861BB695B68002B10D192
:101A70007B6903F48003002B02D00C4BFB6105E073
:101A8000FB681B6800211846FFF78DFBBB6900222D
:101A90005A61FB6918462037BD4680BD24000020EE
:101AA0000000AD0B0A00AD0B0B00AD0B0800AD0B39
:101AB00080B483B000AF78607B681B791946094A0F
:101AC0000B46DB000B449B00134414331B68002BB4
:101AD00014BF01230023DBB218460C37BD465DF866
:101AE000047B70472400002080B58AB000AFF86006
:101AF000B9607A60FB681B791A461346DB00134411
:101B00009B00584A1344BB61574B7B62FB681B68C0
:101B1000B9681846FFF769F9034683F00103DBB2A1
:101B2000002B03D0514B7B627B6A97E0002387F840
:101B30002330BB695B68002B06D0FB681B684FF441
:101B400004711846FFF7D9FBBB699B69002B15D0C0
:101B5000BB69DB69002B0ED0BB695B68002B06D02C
:101B6000FB681B684FF404711846FFF7B7FB404B46
:101B70007B627B6A72E0012387F8233097F8233079
:101B800083F00103DBB2002B09D0BB697A689A614C
:101B9000BB69BA68DA60BB690022DA6105E0BB693B
:101BA000BA681A61BB697A68DA61FB681B684FF42E
:101BB00088711846FFF772FBFB681B684FF4A2712F
:101BC0001846FFF76BFBFB681B687A68B968184614
:101BD000FFF7F2FB0023FB6197F82330002B06D0C0
:101BE000FB681B6820211846FFF769FB14E0BB69FE
:101BF000DB683B61BB699B697B61FB681A68BB69F9
:101C00005B68002B02D107F1100300E000231946A6
:101C10001046FFF71FFBF861BB695B68002B11D111
:101C2000BB6900229A61FB6903F40073002B01D0A9
:101C3000104B7B62FB6903F40033002B0DD00E4B7D
:101C40007B620AE0BB69002283F82120FB681B68E5
:101C50004FF404711846FFF741FB7B6A184628379A
:101C6000BD4680BD240000200000AD0B0A00AD0B76
:101C70000B00AD0B0100AD0B0800AD0B08B5064B1A
:101C8000044613B10021AFF30080044B1B6803B17D
:101C90009847204600F030F800000000480000207F
:101CA00002440346934200D1704703F8011BF9E751
:101CB00070B50D4D00260D4C641BA410A64209D131
:101CC0000B4D00260B4C00F019F8641BA410A64223
:101CD00005D170BD55F8043B01369847EEE755F83D
:101CE000043B01369847F2E7081D0000081D00007C
:101CF000081D00000C1D0000FEE700BFF8B500BF86
:101D0000F8BC08BC9E467047AD040000F8B500BFA3
:101D1000F8BC08BC9E467047850400000000000027
:101D2000681D00000000002002000000701D00007F
:101D30000800002000000000701D000008000020C6
:101D400000000000701D00000800002000000000DE
:101D500008000020110000004C00002000000000DE
:081D60004C000020000000000F
:081D68000080005000000000A3
:040000030000054DA7
:00000001FF
